:020000040800F2
:10000000B80B0020C5000008293B00089D2D000802
:1000100000000000000000000000000000000000E0
:10002000000000000000000000000000753D000816
:100030000000000000000000693C000805400008C6
:10004000D700000800000000D7000008D700000813
:10005000D7000008C10A0008D7000008CB0A000832
:1000600000000000E9090008F9090008090A000871
:10007000710700080D410008D700000800000000CB
:10008000D70000080000000000000000D7000008B2
:1000900000000000D7000008D7000008512E00081B
:1000A00000000000D700000800000000AD43000879
:1000B0000348854600F00EFB004800470D4F00083E
:1000C000B80B00200448804704480047FEE7FEE7DD
:1000D000FEE7FEE7FEE7FEE799400008B1000008F2
:1000E00030B50B46014600202022012409E00D46D0
:1000F000D5409D4205D31D469540491B2546954058
:1001000040191546521E002DF1DC30BD10B5202AD5
:1001100004DB0846203AD040002110BD0B46D340F6
:10012000D0402024A21A91400843194610BDD2B2F3
:1001300001E00270401C491EFBD270470022F6E726
:1001400010B513460A4604461946FFF7F0FF20464D
:1001500010BDF8B502464A40D40F42004B00520889
:100160005B089A4202D20246084611464A0023D052
:10017000C30D4A00DDB2120EAD1A202D35DA490248
:100180000126490AF6058A19002C00D05242202186
:100190004F1B1146B9402A411018C20D9A4221D076
:1001A000002C17D0012D08DCDA05801AD20F801937
:1001B000D207DBB200F0A4F9F8BDDA05801A0123FA
:1001C00040001B06C01880185A428018CA0F1043FE
:1001D000490007E04908C2071143DA05801A80196F
:1001E0004008801800F084F9F8BD61000122511A1E
:1001F000001BF7E70122D2075140AAE70122D207EC
:100200005040A6E7024670B54A40D30FDB074000D6
:100210002DD04A002AD0010E140E00021202091934
:10022000400A520A8418E50104465443000A120A9F
:100230002E045043A4194219200CC543AA18120CCD
:100240000125AD03521C521912047F39240400D039
:10025000521C104301D44000491EC2B20C06C00912
:100260002018401C4008802A02D003E0002070BD06
:1002700040084000002900DA0020184370BD70B526
:1002800002464A40D50F40004A00ED074008520898
:10029000002814D0002A12D0C40DD30D4102012031
:1002A000C0055202490A520AE41A091812187D348C
:1002B000914201D3641C00E04900002C01DA0020C7
:1002C00070BD0023914201D3891A034340084900BD
:1002D0000028F7D100290AD0914202D10121C90793
:1002E00005E0914201D2012101E00121C943E0056D
:1002F000C018401900F0FCF870BD0000F0B50C46C5
:100300005C4085B0E40FE40703944C0000266408C9
:1003100059009446490802460296224321D062467B
:100320000A431ED06200570D4A000E032303550DE9
:10033000012402462C492405781B1B0B360B401860
:1003400023432643614600901C46501AB44103D310
:100350000098401C009002E0921800985B41002831
:1003600003DA0020014605B0F0BD00200121090597
:100370000746864611E064461D46141BB54106D368
:100380006546521BB341744607430C43A646CD074E
:1003900040084908284392185B4105460D43EAD1BD
:1003A0001046184313D06046194650407140084328
:1003B00006D06046101AB34106D20122002306E09F
:1003C00000220123DB0702E00122D24353100098F0
:1003D00074460105381C6141029C039D0019694166
:1003E00000F0C7F8BFE70000FD030000C217C10F0F
:1003F000504010B54018CA079623002100F080F83D
:1004000010BD10B500229623114600F079F810BDFA
:100410000EB505490291002100910A460B46019153
:1004200000F0B4F803B000BD330400004100400206
:100430000122400AD205090E80187F2901DA002026
:100440007047962903DC9622511AC84070479639A6
:10045000884070474A0009030123090B1B05194313
:10046000094B10B5520D9A4201DA002010BD064B1F
:1004700034339A4203DC9A1AFFF748FE10BD034951
:100480005118884010BD0000FF030000CDFBFFFFA6
:10049000C20FD207400040080BD0C10D0723DB017B
:1004A000C91840020905400A1143C2084007114318
:1004B0007047002001467047CB0FDB07490010B59D
:1004C000490802460A4307D00A0D07240903E4013C
:1004D000090B121B002A01DC002010BDC900440FCB
:1004E0000C43C100E018D205801800F001F810BDDF
:1004F000002904DA401C490001D14008400070473F
:1005000070B40024050C05D11024000402D1002988
:1005100021D01124050E01D100020834050F01D1AC
:100520000001241D850F01D18000A41C002801DBDF
:100530004000641C002908D020252E1B0D46F540E4
:10054000A14000D001212943084301061B1B000ADA
:10055000DB1D02D5002070BC7047DB051818801821
:100560000029F8DA401C4900F5D170BC4008400071
:10057000704710B5002B08DA0024401C6141921826
:100580005B411A4301D14008400010BDF0B51FB4D3
:1005900082B005460C0003D0084603F00FFF02E0CE
:1005A00003F00CFF2030024600902146284600F060
:1005B000A3F8049B059A04460F46184311430843C9
:1005C00014D0184610431BD0009840210A1A184630
:1005D0000599FFF79BFD05460E46009A059904987C
:1005E00000F08AF8084305D0012004E0204639468F
:1005F00007B0F0BD0020C11705430E432C4337431D
:1006000000990E986305401A7905E40A00220C430C
:10061000FD0A0A3002D500200146E9E7010510195C
:1006200069410C9C0D9D00196941FFF7A2FFDFE7AE
:10063000FEB500231A461B1A8A4103DB002001463F
:1006400003B0F0BD4A000D0301212D0B0905520D29
:100650000D43D10702D100186D41521E5110FF31D8
:10066000FF310131002704463E463846009701918C
:100670000246012100200905FFF748FDC319714119
:10068000F818324684468E464A4161462846611A29
:10069000904104D36046241A954176461F4624199A
:1006A00000986D41401C00903428E1DDF919304676
:1006B0007041091BA84103D20022D243134601E036
:1006C0000022134601980105381C7141FFF751FFC4
:1006D000B6E70000064C0125064E05E0E36807CCAE
:1006E0002B430C3C98471034B442F7D3FFF7E4FC9B
:1006F000085900082859000810B5202A04DB0146D3
:10070000203A9140002010BD914020239C1A0346BE
:10071000E3401943904010BD70B58C180578401C1B
:100720006B075B0F01D10378401C2A1106D10278B8
:10073000401C03E006780E70401C491C5B1EF9D17A
:100740002B0705D40023521E0DD40B70491CFAE769
:100750000378401CCB1A921C03E01D780D70491CD5
:100760005B1C521EF9D5A142D8D3002070BD0000F9
:1007700010B5024800F04EFB10BD000094050020AB
:1007800070B505466C6A606C50210840002835D170
:10079000606C01214902084360642068C06803213D
:1007A00089020840002825D1206A002822D120682B
:1007B00000680821084008281CD1206880680421AE
:1007C0000840800800280DD1206840680C2188432B
:1007D00021684860606CFF21013188430121084392
:1007E000606407E0606C202108436064A06C012114
:1007F0000843A064204600F0A5FA03E0E06B016B1B
:100800002846884770BD70B505466C6A606C40210B
:1008100008436064A06C04210843A064204600F0F3
:10082000F8FA70BD70B50446656A284600F0F0FA23
:1008300070BD000038B504460025002000902068F7
:1008400080688007800F01280ED120680068C007EB
:10085000C00F002806D12068C0680121C9030840E4
:10086000884201D1012000E00020002843D1206807
:10087000806822490840002801D1012000E00020C2
:10088000002809D1606C102108436064A06C01212C
:100890000843A064012038BD206880680121084316
:1008A00021688860164917480068FFF719FC009016
:1008B00002E00098401E009000980028F9D100F056
:1008C0001BFF05460EE000F017FF401B022809D968
:1008D000606C102108436064A06C01210843A0648F
:1008E0000120D8E720680068C007C00F01214840F8
:1008F00048400028E7D00020CDE700001700008026
:1009000040420F000002002070B504460D4600234F
:100910001FE09800265898001F4908589900615810
:10092000401899001C4A505059001C48405A361A29
:10093000E9001046083008189900415830467043C5
:100940000918EA001448083010189A008150581C01
:10095000C3B2022BDDD37D2149016068884202D8F1
:100960006068642804D20E480078401C0C49087066
:100970000C480078A02809DB00200A4908700848C4
:10098000007803F0F9F9002005490870054800785F
:10099000401C0449087070BD540200204C02002025
:1009A000460000204500002010B500200C49C8601A
:1009B000002409E00A48C068A1000A4A51584018BA
:1009C0000749C860601CC4B20A2CF3D30449C86844
:1009D0000A21FFF785FB0249C8600846C06810BDC0
:1009E000440200200802002010B5024800F06EFC0E
:1009F00010BD0000E005002010B5024800F066FCC4
:100A000010BD00007006002010B5024800F05EFC2A
:100A100010BD00007407002010B50446054A216887
:100A2000881A1421FFF75CFB800020640148083815
:100A3000E06310BD0800024030B50124056CAC40F5
:100A4000C56B6C60046863604468102C04D1046852
:100A5000A2600468E16003E00468A1600468E260E9
:100A600030BD000010B51148007800280BD01049A7
:100A700009686422514308460E490968FFF730FBB4
:100A80000D4908700EE00D48007800280AD008498A
:100A9000496864225143084606490968FFF720FB6C
:100AA000054908700448007810BD000006000020C9
:100AB00044020020000000202C000020070000203D
:100AC00010B5012000F00AFD10BD10B5402000F067
:100AD00005FD10BD7047F8B5044600250026002727
:100AE00000BF4020005D012801D10220F8BD012196
:100AF0004020015500BF206880688007800F0128D2
:100B00000CD1206800680840002805D12068C06822
:100B1000C9030840884201D1012000E000200028DC
:100B20003FD1606CFF21013188430221084360649A
:100B30002068C0688707BF0F2068C06880088000F1
:100B40002168C860206880680121C90708432168BE
:100B5000886000F0D1FD064611E000F0CDFD801B5D
:100B600002280CD9606C022188431021084360647C
:100B700000BF00214020015500BF0120B6E72068DA
:100B80008068C00FC0070028E7D12068C0683843DC
:100B90002168C860606C02218843012108436064B9
:100BA00004E0606C202108436064012500BF00213F
:100BB0004020015500BF284698E70000F8B50446DC
:100BC0000D4600260020009001210907A06B8842F5
:100BD00015D0A06B012812D0A06B02280FD0A06BFB
:100BE00003280CD0A06B042809D0A06B052806D0E0
:100BF000A06B062803D0A06B072800D000BF00BF61
:100C00004020005D012801D10220F8BD01214020D3
:100C1000015500BF20688068042108408008002832
:100C20007BD14449686888425BD02068806A2A7812
:100C30000121914008432168886201210907A06BC6
:100C4000884229D0A06B012826D0A06B022823D08F
:100C5000A06B032820D0A06B04281DD0A06B052812
:100C60001AD0A06B062817D0A06B072814D0A8684C
:100C7000216849694907490F88420DD020684069B9
:100C8000C008C0002168486120684069297A490786
:100C9000490F0843216848612868102802D0286855
:100CA00011283FD1244880682968102901D1C9043E
:100CB00001E00121890508431F4988602868102840
:100CC00030D11E491E480068FFF70AFA0A2148433E
:100CD000009002E00098401E009000980028F9D192
:100CE00020E02068806A2A780121914088432168A9
:100CF00088622868102802D02868112812D10E486E
:100D000080682968102902D1C90402E005E00121A8
:100D1000890588430849886004E0606C2021084305
:100D20006064012600BF00214020015500BF30460D
:100D30006BE70000011000000027014040420F0057
:100D40000002002010B5044626480078012810D182
:100D500025480078401C2449087008460078082877
:100D60000CD10020087021480068401C1F49086011
:100D700004E000201E4908701C4908601D48844298
:100D800029D11D4801781D48FFF7BEFD1C48008889
:100D9000401C1B49088008460088192149018842E7
:100DA0000CD100201449087015490880012015490C
:100DB000087003F0D7F80120134908701048008824
:100DC000FF219131884203D301200B49087002E0D2
:100DD00000200949087004F09FFC01200B490870AD
:100DE00010BD0000D8010020EA010020DC01002035
:100DF0000C00002094050020E9010020D001002013
:100E0000C8010020CA010020CB010020CD01002034
:100E10007047704710B504462068006804210840F8
:100E2000042804D120684068084004280AD02068BB
:100E3000006808210840082840D120684068084020
:100E400008283BD1606C10210840002803D1606C59
:100E50004901084360642068C06803218902084092
:100E6000002825D1206A002822D1206800680821A6
:100E7000084008281CD120688068042108408008A8
:100E800000280DD1206840680C2188432168486003
:100E9000606CFF210131884301210843606407E051
:100EA000606C202108436064A06C01210843A064A9
:100EB0002046FFF747FF0C20216808602068006883
:100EC0008021084080280ED1206840680840802892
:100ED00009D1606C490208436064204600F006F9BD
:100EE00080202168086020680068102108401028D0
:100EF0001AD1206840680840102815D1606B01287D
:100F000005D02068C068C007C00F002809D0A06CB9
:100F100002210843A0641020216808602046FFF7E2
:100F200078FF10202168086010BD000070B50446ED
:100F300000260025002C01D1012070BD606C002826
:100F400006D1A064002140200155204600F0D0F8D1
:100F5000606C1021084000287ED1002EFCD1206852
:100F600080680421084080080028F5D1606C890160
:100F70008843022108436064206880688007800FEE
:100F800001280DD120680068C007C00F002805D1D6
:100F90002068C06889030840884201D1012000E030
:100FA000002000280FD12068C06818218843A1685C
:100FB00008432168C8602068006980008008616873
:100FC0000843216808612068C068464908402168D4
:100FD000C860A0698003E169C9030843216A490325
:100FE0000843616B012902D00121090300E00021BF
:100FF0000843E16808432169022901D1042100E086
:1010000000210843216B490008430543606A012819
:101010000ED1206A002803D101200004054307E017
:10102000606C202108436064A06C01210843A06427
:10103000FF21C231A06A884203D0E16AA06A084356
:1010400005432068C06828432168C860012109075A
:10105000A06B884216D000E03DE0A06B012811D0C3
:10106000A06B02280ED0A06B03280BD0A06B042825
:1010700008D0A06B052805D0A06B062802D0A06B75
:1010800007280DD120684069C008C0002168486168
:1010900020684069218F4907490F0843216848614A
:1010A0002068C06810490840A84208D10020A06408
:1010B000606C0221884301210843606410E0606C89
:1010C00002218843102108436064A06C0121084379
:1010D000A064012604E0606C1021084360640126CE
:1010E00030462AE71902FEFFE7FF3F837047000002
:1010F00010B586B00446142101A8FFF71FF829494E
:10110000206888424CD100BF2748806949150843B0
:10111000254988610846806949150840009000BF4C
:1011200000BF00BF20484069090208431E494861CA
:1011300008464069012149040840009000BF00BFF3
:101140009E200190032002900020039001A9092015
:10115000C00600F0D3F91548154908600020486022
:101160000021134881608021C160890001618900EC
:101170004161202181610902C16100F01FF900284D
:1011800001D0FFF7A7FC00BF0948E063446200BF3D
:10119000002211460C2000F069FE0C2000F05AFEDF
:1011A00006B010BD002401400010024008000240BB
:1011B000E0050020F8B504460D46164600272068D5
:1011C0008068042108408008002848D100BF4020E2
:1011D000005D012801D10220F8BD01214020015508
:1011E00000BFE069012803D02046FFF723FB074634
:1011F000002F35D1606C1B490840FF2101310843A5
:1012000060640020A06400BF00214020015500BFA1
:101210001548E16B88621548E16BC8621448E16BC0
:1012200008631C202168086020684068102108437A
:10123000216848602068C068012108432168C860AF
:1012400022681146403133462A46E06B00F0E8F848
:1012500020688068042108432168886000E0022734
:101260003846B9E7FEF1FFFF8107000825080008AE
:101270000708000870B5044600252120005D0228FB
:1012800003D00420A06301251EE0206800680E2121
:101290008843216808602068006840084000216891
:1012A00008600120216C8840E16B48600121212009
:1012B000015500BF00212020015500BF606B0028B0
:1012C00002D02046616B8847284670BD70B5044641
:1012D000E06B0568206806680420216C884028407F
:1012E00000281BD004203040002817D02068006858
:1012F00020210840002805D1206800680421884387
:10130000216808600420216C8840E16B4860E06A35
:10131000002852D02046E16A88474EE00220216C26
:1013200088402840002823D00220304000281FD0C9
:101330002068006820210840002808D12068006843
:101340000A218843216808600121212001550220DB
:10135000216C8840E16B486000BF002120200155CE
:1013600000BFA06A002828D02046A16A884724E050
:101370000820216C8840284000281ED008203040DA
:1013800000281AD0206800680E2188432168086070
:101390000120216C8840E16B48600120A06301219D
:1013A0002120015500BF00212020015500BF206BE6
:1013B000002802D02046216B884770BD70B50446D6
:1013C0000025002C01D1012070BD022121200155F2
:1013D0002068056811480540A16860680843E16815
:1013E00008432169084361690843A1690843E16929
:1013F00008430543206805602046FFF70DFB0020E9
:10140000A062E06220636063A06301212120015596
:101410000021202001550020D6E700000FC0FFFF6B
:10142000F8B504460D4616461F460020009000BF42
:101430002020005D012801D10220F8BD01212020DB
:10144000015500BF2120005D01282DD1022121205E
:1014500001550020A0632068006840084000216812
:1014600008603B46324629462046FFF7E5FAE06A27
:10147000002806D0206800680E2108432168086013
:101480000BE0206800680A21084321680860206892
:1014900000680421884321680860206800680121F1
:1014A00008432168086006E000BF002120200155A4
:1014B00000BF022000900098BFE731B500F01CF992
:1014C0000546009C601C002800D0641C00BF00F092
:1014D00013F9401BA042FAD338BD704710B504463B
:1014E000054840692040002804D003484461204654
:1014F000FFF7F3FF10BD00000004014078B503467C
:10150000002200240020DEE0012696400D683540D0
:101510002C46002C7ED04D68022D02D04D68122D35
:1015200015D1D508AE001D462035A8595507EE0E39
:101530000F25B5400646AE4330465607F60E0D69F8
:10154000B5402843D508AD001E46203670511868B6
:1015500056000325B5400646AE4330460D79AD072B
:10156000AD0F5600B540284318604D68012D08D0D6
:101570004D68022D05D04D68112D02D04D68122DF9
:1015800018D1986856000325B5400646AE4330464C
:101590005600CD68B54028439860586801259540AD
:1015A0000646AE43304610264D6835402D0995401D
:1015B00028435860D86856000325B5400646AE4318
:1015C000304656008D68B5402843D860012636075E
:1015D0004D683540B54275D100BF3E4DAD6901261D
:1015E00035433C4EB5613546AD69ED07ED0F0095CD
:1015F00000BF00BF384D9608B600A85995072E0FBA
:101600000F25B5400646AE4330460925ED06AB42F0
:1016100003D100E056E000250FE0304DAB4201D190
:1016200001250AE02E4DAB4201D1022505E02D4DEA
:10163000AB4201D1032500E005259607360FB540E2
:101640002843254D9608B600A851274D2868054621
:10165000A5432846012636044D683540B54202D1DF
:10166000054625432846204D286068680546A54361
:101670002846012676044D683540B54202D105461C
:1016800025432846184D6860A8680546A5432846A6
:10169000012636054D683540B54202D10546254341
:1016A0002846114DA860E8680546A543284601264E
:1016B00076054D683540B54202D10546254328469A
:1016C000094DE860521C0D68D540002D00D01BE785
:1016D00078BD0000001002400800014000040048EE
:1016E00000080048000C004800040140002A01D016
:1016F000816100E081627047014800687047000026
:10170000FC01002002464120805C20282FD100BF30
:101710004020805C012801D1022070470123402035
:10172000835400BF2423412083541068006840087C
:101730004000136818601068006801231B03984379
:101740001368186010680068084313681860106810
:101750000068012318431368186020234120835434
:1017600000BF00234020835400BF0020D5E70220A3
:10177000D3E710B502460B4600214120805C2028AB
:101780002ED100BF4020805C012801D1022010BD75
:1017900001244020845400BF242441208454106834
:1017A00000684008400014682060106801680F2439
:1017B00024020846A0430146180201431068016054
:1017C0001068006801242043146820602024412010
:1017D000845400BF00244020845400BF0020D6E77A
:1017E0000220D4E77047704770B5044620688569C9
:1017F00020680668FF200130284000280AD0802099
:101800003040002806D0606C012108436064080263
:101810002168C86101208002284000280AD0802069
:101820003040002806D0606C082108436064C8017D
:101830002168C86101204002284000280AD0802089
:101840003040002806D0606C022108436064080222
:101850002168C861606C0B210840002803D0616CCE
:10186000204601F0EBFB70BD70B504462068856929
:1018700020680668606B002804D03246294620465E
:10188000636B984770BD704710B50446002C01D1BA
:10189000012010BD4120005D002805D1002140201D
:1018A0000155204600F020FA2421412001552068EE
:1018B000006840084000216808600F210906606840
:1018C000884321680861206880680121C903884332
:1018D00021688860E068012806D10121C903A06859
:1018E00008432168886005E021218902A068084337
:1018F00021688860E068022802D18002216848607F
:101900002068406814490843216848602068C0681E
:101910000121C90388432168C860616920690843BF
:10192000A169090208432168C860216AE069084387
:101930002168086020680068012108432168086068
:1019400000206064202141200155002020630021F7
:101950004220015500209CE70080000270470000F3
:10196000FFB583B004460C9F0E9E00254120005D0C
:10197000202871D1002F02D00D98002802D101201B
:1019800007B0F0BD00BF4020005D012801D102205A
:10199000F6E701214020015500BFFFF7ADFE0546E7
:1019A00019230122D1032046009501F081FE002871
:1019B00001D00320E4E722214120015540214220AB
:1019C00001550020606467620D98608500206063A7
:1019D00000960195204604A90EC901F00FFD0028CC
:1019E00010D0606C042806D100BF002140200155B2
:1019F00000BF0120C4E700BF00214020015500BF07
:101A00000320BDE7608DFF280DD9FF202085092028
:101A100080020090208DC2B201231B06204604994B
:101A200001F02EFE0CE0608D2085092080020090E0
:101A3000208DC2B201235B062046049901F020FEEE
:101A400000BF3346002204212046009501F030FEFD
:101A5000002802D0032093E75FE02068406AC1B20B
:101A6000626A501C60621170208D401E2085608D5E
:101A7000401E6085208D002829D1608D002826D049
:101A80003346002280212046009501F011FE0028F7
:101A900001D0032074E7608DFF280CD9FF2020853A
:101AA00000200090208DC2B201231B06204604991D
:101AB00001F0E6FD0BE0608D208500200090208D78
:101AC000C2B201235B062046049901F0D9FD608D66
:101AD0000028B6D12A463146204601F012FE0028E1
:101AE00006D0606C042801D1012049E7032047E7B4
:101AF00020202168C86120684068094908402168A1
:101B0000486020214120015500214220015500BF9D
:101B10004020015500BF002032E7022030E70000DE
:101B200000E800FEFFB583B004460C9F0E9E002522
:101B30004120005D202870D1002F02D00D98002890
:101B400002D1012007B0F0BD00BF4020005D012898
:101B500001D10220F6E701214020015500BFFFF727
:101B6000CBFD054619230122D1032046009501F043
:101B70009FFD002801D00320E4E7212141200155E9
:101B80004021422001550020606467620D98608505
:101B90000020606300960195204604A90EC901F05B
:101BA00076FC002810D0606C042806D100BF00210C
:101BB0004020015500BF0120C4E700BF00214020A4
:101BC000015500BF0320BDE7608DFF280CD9FF2021
:101BD000208500200090208DC2B201231B062046E4
:101BE000049901F04DFD0BE0608D208500200090F0
:101BF000208DC2B201235B062046049901F040FD0E
:101C000000BF2A463146204601F0A8FD002807D033
:101C1000606C042802D1012094E760E0032091E782
:101C2000616A481C6062087821688862608D401E85
:101C30006085208D401E2085208D002829D1608D53
:101C4000002826D03346002280212046009501F04E
:101C50002FFD002801D0032074E7608DFF280CD9E8
:101C6000FF20208500200090208DC2B201231B069A
:101C70002046049901F004FD0BE0608D20850020D2
:101C80000090208DC2B201235B062046049901F02A
:101C9000F7FC608D0028B4D12A463146204601F079
:101CA00030FD002806D0606C042801D1012049E7EE
:101CB000032047E720202168C8612068406809495F
:101CC0000840216848602021412001550021422020
:101CD000015500BF4020015500BF002032E702201F
:101CE00030E7000000E800FE10B586B0044614217D
:101CF00001A8FEF723FA2B492068884250D100BF83
:101D00002948406901218904084327494861084658
:101D10004069012189040840009000BF00BF0320F2
:101D20008002019012200290012003900320049071
:101D30000120059001A91D48FFF7E0FB00BF1A48EC
:101D4000C0690121490508431749C8610846C069AF
:101D5000012149050840009000BF00BF1448154903
:101D60000860002048600021124881608021C16025
:101D70000021016141618161C161FFF71FFB002802
:101D800001D0FEF7A7FE00BF0A48E063446200BF2F
:101D900000221146172000F069F8172000F05AF8C9
:101DA00006B010BD0054004000100240000400487E
:101DB00030000240700600207047704702480068FB
:101DC000401C014908607047FC01002010B506481E
:101DD00000681021084304490860002000F006F85C
:101DE00000F018F8002010BD0020024070B5044635
:101DF00000F0D4F906467D21C900FEF771F90546C9
:101E000000F0DAFC00222146501E00F02FF80020DE
:101E100070BD000008B500BF0D488069012108436E
:101E20000B49886108468069C007C00F009000BF59
:101E300000BF00BF0846C069090408430449C861DF
:101E40000846C06909040840009000BF00BF08BDF3
:101E50000010024000BFC206D20E01219140024A8A
:101E6000116000BF7047000000E100E070B504465B
:101E70000D4616462946204601F058FE70BD00006A
:101E800000BF00BF00BF00BF00BFBFF34F8F00BF48
:101E900000BF00BF06480749C86000BF00BF00BFC1
:101EA000BFF34F8F00BF00BF00BF00BF00BFFDE703
:101EB0000400FA0500ED00E0F8B504460026002510
:101EC000012109042068084088427AD100274B4844
:101ED000C0690903084000280DD100BF4748C06908
:101EE00008434649C8610846C06909040840009093
:101EF00000BF00BF012742480068FF2101310840B0
:101F0000002816D13E48006808433D490860FFF7A5
:101F1000F3FB064606E0FFF7EFFB801B642801D9C0
:101F20000320F8BD36480068FF2101310840002831
:101F3000F1D03248006A0321090208400546002D0D
:101F40002DD060680840A84229D02C48006A8843F8
:101F500005462A48006A0121090408432749086206
:101F60000846006A0121090488432449086208469A
:101F70000562E807C00F002811D0FFF7BDFB064639
:101F800007E0FFF7B9FB801B1E49884201D90320F7
:101F9000C7E71A48006A022108400028F1D0174814
:101FA000006A0321090288436168084313490862F3
:101FB000012F05D10846C069090488430F49C8614B
:101FC00000BF2078C007C00F002807D00B48006B67
:101FD00080088000A1680843084908632021206820
:101FE0000840202807D10548006B10218843E1688C
:101FF000084302490863002093E7000000100240F4
:10200000007000408813000070B504460D4600269D
:102010005D480068C007C00FA8420ED25A48006849
:102020004008400028435849086008460068C00737
:10203000C00FA84201D0012070BD022120680840D5
:10204000022807D151484068F0218843A16808431D
:102050004E4948602078C007C00F00285FD06068F4
:10206000012808D149480068012149040840002896
:1020700015D10120E0E76068022808D143480068D4
:10208000012149060840002809D10120D4E73F4832
:10209000006802210840002801D10120CCE73B481C
:1020A0004068800880006168084338494860FFF74D
:1020B00023FB0646606801280FD107E0FFF71CFBF1
:1020C000801B3349884201D90320B5E72F48406877
:1020D0000C2108400428F1D121E0606802280FD1CA
:1020E00007E0FFF709FB801B2949884201D903203B
:1020F000A2E7264840680C2108400828F1D10EE0EC
:1021000007E0FFF7F9FA801B2149884201D9032033
:1021100092E71E4840680C2108400028F1D11A4877
:102120000068C007C00FA8420ED9174800684008D1
:10213000400028431449086008460068C007C00FE3
:10214000A84201D0012077E7042120680840042834
:1021500008D10E484068072109028843E168084316
:102160000A49486000F020F808494968F022114007
:102170000909084A515CC840074908600020FFF778
:1021800035FE002058E70000002002400010024009
:1021900088130000F0580008000200200148006881
:1021A0007047000000020020F0B589B024A001466D
:1021B0000EC9C06805AC0EC4089025A001460EC922
:1021C000C06801AC0EC4049000240027002500263E
:1021D00000200090224844680C202040002827D08E
:1021E000042802D0082822D102E01E48009022E0F4
:1021F0000F2080042040800C05A90E5C1848C06A9E
:102200000007000F01A90F5C0120000420400121FC
:102210000904884206D139461248FDF761FF704330
:10222000054602E0104835464543009503E000BFEF
:102230000C48009000BF00BF009809B0F0BD00003E
:1022400002030405060708090A0B0C0D0E0F1010F7
:102250000102030405060708090A0B0C0D0E0F10F6
:102260000010024000127A0000093D00F8B5044653
:1022700000252078C007C00F002871D0F9484068B9
:102280000C21084004280BD0F64840680840082874
:1022900012D1F448406801210904084088420BD15A
:1022A000F048006801214904084000286BD06068AC
:1022B000002868D10120F8BD00BF6068012807D15F
:1022C000E8480068012109040843E649086031E054
:1022D000606800280ED1E3480068012109048843A2
:1022E000E049086008460068012189048843DD4907
:1022F00008601FE0606805280ED1DA4800680121F7
:1023000089040843D7490860084600680121090488
:102310000843D44908600DE0D2480068012109044F
:102320008843D04908600846006801218904884331
:10233000CC49086000BF6068002812D0FFF7DCF9C4
:10234000054606E0FFF7D8F9401B642801D90320B1
:10235000B1E7C44800680121490408400028F1D0D1
:1023600011E0FFF7C9F9054606E0FFF7C5F9401B84
:10237000642801D903209EE7BA4800680121490476
:1023800008400028F1D1022120680840022861D1CC
:10239000B44840680C21084000280BD0B148406880
:1023A000084008281BD1AF484068012109040840B3
:1023B000002814D1AB48006802210840002804D04E
:1023C000E068012801D0012075E7A6480068F821DF
:1023D00088432169C9000843A24908603AE0E068DF
:1023E000002820D09F480068012108439D490860CB
:1023F000FFF782F9054606E0FFF77EF9401B022849
:1024000001D9032057E797480068022108400028B7
:10241000F2D094480068F82188432169C900084334
:102420009049086016E08F480068400840008D49D8
:102430000860FFF761F9054606E0FFF75DF9401B0C
:10244000022801D9032036E78648006802210840A7
:102450000028F2D1082120680840082831D1E0691D
:10246000002817D07F48406A012108437D4948620F
:10247000FFF742F9054606E0FFF73EF9401B022848
:1024800001D9032017E77748406A02210840002855
:10249000F2D016E07348406A400840007149486233
:1024A000FFF72AF9054606E0FFF726F9401B022848
:1024B00001D90320FFE66B48406A0221084000284A
:1024C000F2D1042120680840042871D10026654813
:1024D000C0698906084000280DD100BF6148C06965
:1024E00008436049C8610846C06909040840009073
:1024F00000BF00BF01265C480068FF210131084091
:10250000002816D158480068084357490860FFF76B
:10251000F3F8054606E0FFF7EFF8401B642801D901
:102520000320C8E650480068FF2101310840002818
:10253000F1D000BFA068012806D14A48006A0121F5
:102540000843484908622BE0A06800280CD14548A0
:10255000006A40084000434908620846006A0421B6
:102560008843404908621BE0A06805280CD13D481B
:10257000006A042108433B4908620846006A0121B9
:102580000843384908620BE03648006A40084000BA
:10259000344908620846006A0421884331490862C8
:1025A00000BFA068002813D0FFF7A6F8054608E092
:1025B00029E0FFF7A1F8401B2C49884201D90320EC
:1025C00079E62848006A022108400028F1D011E08D
:1025D000FFF792F8054607E0FFF78EF8401B234906
:1025E000884201D9032066E61E48006A022108409D
:1025F0000028F1D1012E05D11A48C069310788435E
:102600001849C86100BF10212068084010285FD118
:10261000606901282CD11348406B042108431149FB
:1026200048630846406B012108430E494863FFF7A1
:1026300063F8054606E0FFF75FF8401B022801D962
:10264000032038E60748406B022108400028F2D0FA
:102650000448406BF8218843A169C9000843014937
:10266000486335E00010024000700040881300000D
:102670006069401D00280FD14E48406B04218843FB
:102680004C4948630846406BF8218843A169C9005A
:102690000843484948631BE04648406B042108430F
:1026A000444948630846406B400840004863FFF7D0
:1026B00023F8054606E0FFF71FF8401B022801D962
:1026C0000320F8E53B48406B022108400028F2D186
:1026D000206A00286CD0374840680C210840082840
:1026E00064D0206A022847D13248006801210906D7
:1026F000884330490860FEF7FFFF054606E0FEF715
:10270000FBFF401B022801D90320D4E529480068BB
:102710000121490608400028F1D100BF2548C06AC0
:1027200000090001E16A08432249C862616AA06A9F
:102730000843204949683D221204914308431D493A
:10274000486000BF0846006801210906084319498E
:102750000860FEF7D1FF054606E0FEF7CDFF401BFF
:10276000022801D90320A6E5124800680121490684
:1027700008400028F1D01BE00E480068012109063E
:1027800088430C490860FEF7B7FF054606E0FEF7F0
:10279000B3FF401B022801D903208CE505480068DF
:1027A0000121490608400028F1D101E0012082E51D
:1027B000002080E50010024070B504462546681EE2
:1027C0000949884201D901200CE0681E0749486187
:1027D0000321081F01F0AAF900200449886107209D
:1027E0000861002070BD0000FFFFFF0000E000E076
:1027F00070477047024600BF3C20805C012801D131
:102800000220704701233C20835400BF02233D2057
:1028100083541068406870239843136858601068A8
:1028200040680B68184313685860106880688023FC
:10283000984313689860106880684B681843136861
:10284000986001233D20835400BF00233C20835423
:1028500000BF0020D5E710B50446002C01D10120AF
:1028600010BD3D20005D002805D100213C20015510
:10287000204600F00DF802213D200155211D206861
:1028800001F04CFC01213D2001550020E8E700004B
:1028900038B504460D492068884215D100BF0C4860
:1028A0008069C91408430A49886108468069C914C7
:1028B0000840009000BF00BF002211460D20FFF726
:1028C000D5FA0D20FFF7C6FA38BD0000002C0140F4
:1028D00000100240014602223D2042540868006870
:1028E000012210430A68106001223D20425400205A
:1028F0007047F8B504460D46002600BF3C20005D39
:10290000012801D10220F8BD01213C20015500BF62
:1029100002213D2001552068866877213046884392
:102920000646FF2109023046884306462068866035
:10293000286850283ED00CDC202863D004DC002816
:1029400056D0102868D158E0302860D0402863D194
:1029500044E0602838D070280DD001210903401AC6
:1029600002D0401A58D117E020688068C008C00023
:102970002168886051E0EB686A68A968206801F006
:1029800015FC206886687721304688430646772004
:1029900006432068866040E0EB686A68A9682068A2
:1029A00001F004FC20688068012189030843216844
:1029B000886032E0EA686968206801F013FC502101
:1029C000206801F002FC28E0EA686968206801F0EC
:1029D00024FC6021206801F0F8FB1EE0EA686968C9
:1029E000206801F0FFFB4021206801F0EEFB14E0BD
:1029F0000021206801F0E9FB0FE01021206801F0C0
:102A0000E4FB0AE02021206801F0DFFB05E0302133
:102A1000206801F0DAFB00E000BF00BF01213D208B
:102A2000015500BF00213C20015500BF00206AE78E
:102A3000704710B50446206800690221084040082C
:102A400000281CD02068C06808404008002816D024
:102A5000481F21680861012020772068806980076D
:102A6000800F002803D02046FFF7E2FF05E0204654
:102A700000F0C3F8204600F0C1F80020207720685D
:102A8000006904210840800800281DD02068C06823
:102A900008408008002817D0C84321680861022038
:102AA000207720688069032109020840002803D0AC
:102AB0002046FFF7BDFF05E0204600F09EF82046C7
:102AC00000F09CF800202077206800690821084069
:102AD000C00800281CD02068C0680840C008002832
:102AE00016D0C84321680861042020772068C06997
:102AF0008007800F002803D02046FFF799FF05E0EC
:102B0000204600F07AF8204600F078F80020207780
:102B10002068006910210840000900281DD02068A5
:102B2000C06808400009002817D0C8432168086120
:102B3000082020772068C069032109020840002886
:102B400003D02046FFF774FF05E0204600F055F85B
:102B5000204600F053F80020207720680069C00765
:102B6000C00F01214840484000280CD02068C068B0
:102B7000084048404840002805D0C81E2168086128
:102B8000204600F03CF82068006980210840C00918
:102B900000280BD02068C0680840C009002805D074
:102BA000C843216808612046FFF722FE20680069BB
:102BB00040210840800900280BD02068C0680840E8
:102BC0008009002805D0C84321680861204600F02C
:102BD00017F82068006920210840400900280BD020
:102BE0002068C06808404009002805D0C843216813
:102BF00008612046FFF7FDFD10BD70477047704724
:102C000070477047F8B504462068C56920680668B3
:102C10002807000F0090009800280BD120202840A2
:102C2000002807D020203040002803D0204601F0A3
:102C30003CFBF8BD20688768009800287ED0F80724
:102C4000C00F002804D1FF20213030400028F5D0EB
:102C5000E807C00F00280BD0FF20013030400028CB
:102C600006D0012021680862E06E01210843E06679
:102C70000220284000280AD0F807C00F002806D0FC
:102C8000022021680862E06E04210843E066042007
:102C9000284000280AD0F807C00F002806D00420DA
:102CA00021680862E06E02210843E066082028409F
:102CB00000280ED020203040002803D1F807C00F94
:102CC000002806D0082021680862E06E0821084329
:102CD000E066E06E002841D020202840002806D081
:102CE00020203040002802D0204601F0DEFAE06EBD
:102CF00008210840002805D120688068402108404C
:102D0000002826D0204601F0AFFA206880684021D4
:102D10000840002819D020688068884321688860AE
:102D2000606E00280DD01B48616E4863606EFEF730
:102D3000A1FA002812D0606E416B00E00FE08847D6
:102D40000CE02046FFF75DFF08E02046FFF759FF43
:102D500004E02046FFF755FF0020E06669E7802089
:102D60002840002807D080203040002803D020468B
:102D700001F0E2FA5DE740202840002807D040201B
:102D80003040002803D0204601F07FFA51E700BF11
:102D90004FE70000514200087047704700BFFEE750
:102DA00010B5AE21174800F0FDFE00BF16480078B0
:102DB0000128FBD100201449087000F057FF00F0F3
:102DC00065FF00BF104800780128FBD100200E49A4
:102DD000087000F04BFF00BF0B4800780128FBD1C2
:102DE00000200949087000F041FF00BF0648007844
:102DF0000128FBD100200449087000F037FF00F0E3
:102E000045FF10BD24060020CA01002010B50B4864
:102E10000068006804218843084909680860084878
:102E2000FFF758FD0748FDF756FE02220649054800
:102E3000FEF7C0F900200549087010BDE00500202C
:102E4000C406002094050020D0010020CA01002003
:102E500010B5084800688069072109020840002869
:102E600003D00448FEF7C0FC02E00248FEF7FCFC79
:102E700010BD00002406002070B505466C6A20686D
:102E800040680121C9030843216848600020A16B04
:102E90004863E16B48634120005D602806D1202132
:102EA000412001552046FEF79DFC02E02046FEF73A
:102EB000EAFC70BD10B503460A460021D007C00FDA
:102EC000002809D0422001434120C05C2824204032
:102ED000282801D0B020014302201040022809D147
:102EE000442001434120C05C28242040282801D0F0
:102EF000B020014304201040042801D1B820014330
:102F000011201040112801D19020014312201040BF
:102F1000122801D12020014312201040122801D193
:102F2000402001431868006888431C682060002026
:102F300010BD01688969022211404908002902D0A8
:102F400000210268916201688969C907C90F0122DD
:102F500051405140002904D1016889691143026838
:102F600091617047F8B5044600270025002600202F
:102F700000904120005D28210840282854D1206875
:102F80008069012109040840070C206880697F21BD
:102F900049040840050C206880688605B60D206845
:102FA000C068FE2108400090E06802282DD106206C
:102FB0002840F11106221140884216D13546A06CF6
:102FC000401CA064A06C022836D10020A064082018
:102FD0002168C86100BF00214020015500BF2A467A
:102FE00039462046FEF7FFFB26E0009D04212046DF
:102FF000FFF760FF00BF00214020015500BF2A46B7
:1030000039462046FEF7EFFB16E004212046FFF785
:1030100051FF00BF00214020015500BF2A4639461C
:103020002046FEF7E0FB07E008202168C86100BFEA
:1030300000214020015500BFF8BD000070B50446D6
:103040000D460021422001553F48E0620020608586
:10305000606C284360644120005D282807D041202F
:10306000005D292803D04120005D2A280BD10321CF
:103070002046FFF71FFF2821412001550020206333
:10308000324860630DE007212046FFF713FF41201F
:10309000005D602802D020214120015500202063DE
:1030A000606320680068012189030840884215D1C7
:1030B000206800688843216808602548A16B486340
:1030C00000BF00214020015500BFA06BFEF7D2F8E1
:1030D000002838D0A06B416B884734E02068006836
:1030E0000121C9030840884215D12068006888433F
:1030F000216808601648E16B486300BF002140204A
:10310000015500BFE06BFEF7B5F800281BD0E06B5F
:10311000416B884717E04120005D60280BD12021DA
:103120004120015500BF00214020015500BF20462D
:10313000FEF758FB07E000BF00214020015500BF0B
:103140002046FEF7A0FB70BD0000FFFF2135000800
:10315000792E000870B504460D461A48E06200203A
:1031600020632021412001550021422001550020EB
:10317000606304202840002813D02068406AC1B250
:10318000626A501C60621170208D002809D0208D69
:10319000401E2085608D401E6085606C04210843C0
:1031A000606407212046FFF785FE10202168C86172
:1031B00000BF00214020015500BF2046FEF7CEFB96
:1031C00070BD00000000FFFF70B504460D462020D2
:1031D0002168C86108202168C86107212046FFF7DF
:1031E00069FE206840680121C903084321684860DE
:1031F0002068406841490840216848602046FFF740
:1032000098FE20680068012189030840884205D0A3
:10321000206800684900084088420BD14120005DC9
:10322000212803D1A06B0068406802E0E06B0068D1
:1032300040686085608D002803D0606C04210843DD
:10324000606404202840002813D02068406AC1B27E
:10325000626A501C60621170208D002809D0208D98
:10326000401E2085608D401E6085606C04210843EF
:10327000606400202063002142200155002060632B
:10328000606C00280CD0616C2046FFF7D7FE41200F
:10329000005D282831D129462046FFF75BFF2CE04E
:1032A000E06A174988420DD00846E062202141209B
:1032B000015500BF00214020015500BF2046FEF708
:1032C0004DFB1AE04120005D22280BD12021412036
:1032D000015500BF00214020015500BF2046FEF7E8
:1032E0006BFD0AE020214120015500BF0021402054
:1032F000015500BF2046FEF760FD70BD00E800FEEE
:103300000000FFFF10B50446002142200155412076
:10331000005D292811D12821412001552120206359
:1033200001212046FFF7C6FD00BF002140200155C6
:1033300000BF2046FEF741FD14E04120005D2A2831
:1033400010D128214120015522202063022120464E
:10335000FFF7B0FD00BF00214020015500BF20460F
:10336000FEF72AFD10BD000070B504460D46164656
:103370002068806910210840000900283AD015E033
:10338000681C002812D0002D04D0FEF7B5F9801B70
:10339000A8420BD92021412001550021422001558E
:1033A00000BF4020015500BF032070BD2068806928
:1033B0002021084040090028E2D010202168C8617F
:1033C00020202168C8612046FFF7B3FD20684068CF
:1033D0000949084021684860042060642021412098
:1033E000015500214220015500BF4020015500BF7A
:1033F0000120DAE70020D8E700E800FEFFB581B041
:10340000044615461E460A9F01204003F2B20023DF
:1034100000902046029900F033F9394620460B9A75
:1034200000F09CF9002807D0606C042802D101202C
:1034300005B0F0BD0320FBE7012E03D1E8B22168FF
:10344000886216E0FF20000228400012216888628E
:10345000394620460B9A00F081F9002806D0606CAE
:10346000042801D10120E3E70320E1E7E8B2216865
:1034700088620B983B46002240210090204600F0D5
:1034800017F9002801D00320D2E70020D0E7FFB5CC
:1034900081B0044615461E460A9F01204003F2B241
:1034A000C30200902046029900F0EAF8394620460F
:1034B0000B9A00F053F9002807D0606C042802D161
:1034C000012005B0F0BD0320FBE7012E03D1E8B2D7
:1034D0002168886216E0FF2000022840001221685F
:1034E0008862394620460B9A00F038F9002806D049
:1034F000606C042801D10120E3E70320E1E7E8B292
:10350000216888620B983B4600228021009020466B
:1035100000F0CEF8002801D00320D2E70020D0E749
:1035200070B504460D46164600BF4020005D0128D8
:1035300001D1022070BD01214020015500BF1020A3
:103540002840002834D010203040002830D0608D32
:10355000002825D1E06A4906884202D0E06A884204
:1035600008D14120005D282804D129462046FFF7D4
:10357000F1FD70E0E06A414988420DD04120005DD4
:10358000292809D110202168C8612046FFF7D1FC05
:103590002046FFF7B7FE5EE010202168C8615AE0C0
:1035A00010202168C861606C04210843606452E007
:1035B0000420284000281ED00420304000281AD0C3
:1035C000608D00280CD02068406AC1B2626A501C2D
:1035D00060621170208D401E2085608D401E6085C8
:1035E000608D002837D1E06A2449884233D02046D4
:1035F000FFF788FE2FE008202840002808D0082088
:103600003040002804D029462046FFF7ABFC22E0DA
:103610000220284000281ED00220304000281AD066
:10362000608D00280CD0616A481C606208782168AF
:103630008862608D401E6085208D401E20850AE0D6
:10364000E06A01210906884202D0E06A002802D11E
:103650002046FFF757FE20202840002807D02020D2
:103660003040002803D029462046FFF7ADFD00BFBB
:1036700000214020015500BF00205BE70000FFFF54
:10368000F0B50C46002105686968084D2940A5057C
:10369000AD0D1604FF273F043E4035431D43059EF4
:1036A0003543294305686960F0BD0000009800FCBF
:1036B000F8B504460E4617461D4616E0681C00285D
:1036C00013D0002D05D0FEF717F80699401AA8422E
:1036D0000BD920214120015500214220015500BF76
:1036E0004020015500BF0320F8BD206880693040AC
:1036F000B04201D1012000E00020B842DED000201D
:10370000F2E770B504460D4616461EE032462946DD
:103710002046FFF729FE002801D0012070BD002DB2
:1037200004D0FDF7E9FF801BA8420ED9606C202170
:10373000084360644120015500214220015500BF2B
:103740004020015500BF0320E8E720688069202160
:10375000084040090028D9D00020DFE770B50446B2
:103760000D46164621E0324629462046FFF7FCFD6D
:10377000002801D0012070BD681C002815D0002D44
:1037800004D0FDF7B9FF801BA8420ED9606C202140
:10379000084360644120015500214220015500BFCB
:1037A0004020015500BF0320E5E720688069022121
:1037B000084040080028D6D00020DCE70146002958
:1037C00001D0002070470120FCE700000EB500206A
:1037D0000090019002901D481D4908604005486016
:1037E00000211B488160C160012101610821416104
:1037F00000218161C161016241628162012189020E
:10380000C162012101634163FDF790FB002801D0F3
:10381000FDF760F901200090000301900220029062
:103820000420009069460A48FDF7C8F9002801D035
:10383000FDF750F90520009069460548FDF7BEF9EF
:10384000002801D0FDF746F90EBD0000002401401C
:103850009405002008B500BF1248406901210843C3
:103860001049486108464069C007C00F009000BF7A
:1038700000BF002211460920FEF7F8FA0920FEF7E2
:10388000E9FA002211460A20FEF7F0FA0A20FEF7B4
:10389000E1FA002211460B20FEF7E8FA0B20FEF7B2
:1038A000D9FA08BD0010024000B587B0142102A863
:1038B000FCF744FC00BF5F4840690121C90408438C
:1038C0005C494861084640690121C90408400190EB
:1038D00000BF00BF00BF57484069C90008435549B1
:1038E000486108464069012189050840019000BFF0
:1038F00000BF00BF4F484069491108434D49486126
:1039000008464069012149040840019000BF00BFFA
:1039100000BF484840694900084346494861084695
:103920004069012189040840019000BF00BF0022C6
:10393000072149034048FDF7D9FE00223F4940488E
:10394000FDF7D4FE0022FF2101310920C006FDF75A
:10395000CDFE0022C0213B48FDF7C8FE07204003F2
:1039600002900120039000200490059002A93248A3
:10397000FDF7C4FD0120029033480390002004901D
:1039800002A90920C006FDF7B9FD304802900020C9
:1039900003900120049002A90920C006FDF7AEFDA6
:1039A000402002902A4803900020049002A9092098
:1039B000C006FDF7A3FD21480290012003900020DE
:1039C0000490059002A91E48FDF798FD042002907E
:1039D000002003900120049002A91948FDF78EFDF4
:1039E000FF200130029001200390002004900590F8
:1039F00002A90920C006FDF781FDC0200290012028
:103A0000039000200490059002A90E48FDF776FD72
:103A1000002211460520FEF729FA0520FEF71AFAC2
:103A2000002211460720FEF721FA0720FEF712FABE
:103A300007B000BD0010024000080048FAF3000083
:103A40000004004800140048000011102088000005
:103A50000000211010B5134813490860134848604E
:103A60000021114881600121C16000210161416193
:103A70008161C1610162FDF707FF002801D0FDF7F8
:103A800029F800210848FDF73DFE002801D0FDF788
:103A900021F800210448FDF76CFE002801D0FDF755
:103AA00019F810BD00540040240600200B0200004D
:103AB00000B587B000200390049005900690019017
:103AC00002901648164908600020486000211448FA
:103AD00081601449C1600021016141618161FEF78B
:103AE000BAFE002801D0FCF7F5FF01200003039087
:103AF00003A90B48FEF7FDFE002801D0FCF7EAFF02
:103B0000202001900020029001A90548FEF772FED6
:103B1000002801D0FCF7DEFF07B000BD002C0140FB
:103B2000C4060020871300007047000010B500286D
:103B300019DA1A4A03071B0F083B9B089B00D2584F
:103B40008307DC0EFF23A3409A438B071B0E8407D9
:103B5000E40EA3401A43114B0407240F083CA408A9
:103B6000A4001A5118E00E4A03231B02D21883083E
:103B70009B00D2588307DC0EFF23A3409A438B0798
:103B80001B0E8407E40EA3401A43054B03242402B2
:103B90001B198408A4001A5110BD00001CED00E0A0
:103BA00000E100E0024A1060024A11707047000014
:103BB0001401002018010020FEB505460E461446EB
:103BC0001148007801210843074615E00020C04352
:103BD000042101232A4600960191029039460B48A0
:103BE0000068FDF7BDFE0A4908700420FDF765FC7A
:103BF000241F281D85B2361D002CE7DC01DC0020C7
:103C0000FEBD0020C043FBE7180100201401002086
:103C100019010020FEB505460E46144616E00020A8
:103C2000C043042101232A460096019102900B48CB
:103C300001780B480068FDF775FF0A4908700420F9
:103C4000FDF73BFC241F281D85B2361D002CE6DC49
:103C500001DC0020FEBD0020C043FBE7180100206E
:103C600014010020190100207047000010B5002445
:103C700001E0601CC4B2022CFBDB20220249C820F8
:103C8000FFF79AFF10BD0000D4020020F0B585B008
:103C900000200490002425E0A2002F498858FCF75A
:103CA000B7FB0191009001F02DFC0546FCF7D2FB1B
:103CB0000290FCF7A6FBA2000390284881580398C5
:103CC000FCF7A0FA0746FCF7B1FBA100244A5050CC
:103CD000A00011460858C82802D20020A100505068
:103CE000601CC4B2022CD7DB1E480078012813D117
:103CF0001B4801681C4802780078401C1A4B187059
:103D000090001A4A11501448083880680490002125
:103D1000049800F0B7F816E015480078012812D191
:103D20000F484168104802780078401C0E4B18700C
:103D300090000E4A115008480838C06804900121CC
:103D4000049800F09FF8084800780A2802D3002061
:103D50000549087005B0F0BD7C0200206C0200200F
:103D600044020020060000204A0000200802002033
:103D70000700002070470000022806DD0121064AE6
:103D800011700021054A117005E00021024A1170EE
:103D90000121024A11707047060000200700002030
:103DA000F0B589B005460C462901334A8918A200AE
:103DB0008858FCF72DFB0191009001F0A3FB0391C3
:103DC0000290FCF747FB064629012B4A8A18611C22
:103DD00089005058FCF71CFB0191009001F092FB08
:103DE00003910290FCF736FB07463046FCF709FBCF
:103DF000A100224A03905058FCF703FB029003995C
:103E0000FCF73DFA07903846FCF7FBFA611C890085
:103E10001A4A03905058FCF7F4FA02900399FCF701
:103E20002EFA0690B81BFCF7ECFA03900799069857
:103E3000FCF7E0F902900399FCF721FA059030466F
:103E4000FCF7DFFA02900599FCF7DCF9039007997B
:103E5000FCF7D4F904903046FCF7D3FA02900599A8
:103E6000FCF7D0F903900499FCF773F9AA00044910
:103E7000885009B0F0BD0000D402002034000020BA
:103E80006C020020F0B589B005460C4600265EE0C5
:103E9000200131494018B1004058A8420DD82001F6
:103EA0002D494118701C80000858A84205D9314698
:103EB0002046FFF775FF09B0F0BD012C21D126483F
:103EC0000069A8421DD924490869FCF7A1FA0191AB
:103ED000009001F017FB0591049020490868FCF759
:103EE00090FA0746FCF7D4FA03910290059B049AD6
:103EF000FCF704FA07910690FCF7DEFA1849C8614E
:103F0000D9E7002C21D11448C068A8421DD212491B
:103F1000C868FCF77DFA0191009001F0F3FA059171
:103F200004900E49C868FCF76CFA0746FCF7B0FA33
:103F300003910290059B049AFCF7E0F90791069023
:103F4000FCF7BAFA06498861B5E7701CC6B2042EC0
:103F50009ED300BFAFE70000D40200203400002051
:103F600054020020F8B5002440E00020A100214ABE
:103F70005050A00020490858A10050500020A10036
:103F80001D4A5050A1001B4A5058FCF72FFA074613
:103F90001A49FCF737F90646FCF748FA81B2620085
:103FA000174881520021A200124808308150002594
:103FB00018E0E900104808300818A10040588108AE
:103FC000A2000C48083080580918A200094808309F
:103FD00081500021EA00084808301018A2008150E2
:103FE000681CC5B2022DE4DB601CC4B2022CBCD339
:103FF000F8BD000074020020540200200AD7A33A42
:104000004C02002010B5FDF7D9FE10BD00B595B0EB
:10401000302109A8FCF792F800200590069007903F
:10402000089001900290039004900B2009900120C9
:104030000A900C9010200D900120109002201190F9
:10404000C10312910321890413910021149109A83D
:10405000FEF70CF9002801D0FCF73CFD0720059085
:1040600002200690002007900890012105A8FDF786
:10407000CBFF002801D0FCF72DFD2120019000206E
:104080000390049001A8FDF717FF002801D0FCF76A
:1040900021FD15B000BD000019480068012108434A
:1040A00017490860084640681649084014494860A6
:1040B000084600681449084011490860084600682D
:1040C0000121890488430E490860084640683F2161
:1040D000090488430A4948600846C06A000900018B
:1040E000C8620846006BFF21143188430449086305
:1040F0000846406B400840004863002088607047D5
:10410000001002400CB8FF08FFFFF6FE10B5024891
:10411000FEF78FFC10BD0000C406002010B5002281
:1041200002681D4B984202D01C4B984205D1702466
:104130001346A3431A464B681A43174B98420BD0B9
:10414000164B984208D0164B984205D0154B984212
:1041500002D0154B984206D1032424021346A343F0
:104160001A46CB681A4380241346A3434C69234361
:104170001A4602608B68C3620B688362064B9842E2
:1041800005D0084B984202D0074B984201D10B69E9
:1041900003630123436110BD002C01400004004073
:1041A00000200040004401400048014070B50C462A
:1041B00000218168FF2636020D46B54329461D02BF
:1041C000154325432943816070BD10B50A4600217F
:1041D000816870240B46A3431946072313431943F0
:1041E000816010BD70B50B46144600210022026AA2
:1041F000056A6D086D0005628169F0260D46B543BC
:104200002946250129430A261546B5432A4615465F
:104210001D432A468161026270BD70B50B4614468B
:1042200000210022056A1026B54305628169026AF1
:104230000F2636030D46B543294625032943A026FC
:104240001546B5432A461D012A438161026270BDAD
:1042500070B505466C6A00215A2001535220015363
:104260002046FEF7CEFC70BD01680968FF222132AE
:104270009143026811600168896849084900026831
:10428000916020226A210A54704710B504462068C4
:104290000068402188432168086020216920015579
:1042A0002046FEF77AFD002010BDF8B504465C20DC
:1042B000075B6A20005D222836D12068858C0121A9
:1042C0000903A06888420AD12069002807D1666DD9
:1042D000284638403080606D801C606505E0F8B28B
:1042E0002840626D511C616510705A20005B401EB1
:1042F00081B25A200153002914D120680068FF219F
:1043000021318843216808602068806840084000A7
:104310002168886020216A2001552046FEF73CFD77
:104320000020F8BD0020FCE72068806908210843D0
:10433000216888610220F4E701466920405C212859
:1043400031D15220405A00280DD1086800688023DE
:1043500098430B68186008680068402318430B688E
:1043600018600020704701231B03886898420CD115
:104370000869002809D1CA6C1088C005C00D0B68F7
:104380001885C86C801CC86405E0CB6C581CC864D8
:1043900018780B6818855220405A401E83B252206C
:1043A00043520020DEE70220DCE7000010B502489F
:1043B000FEF728FC10BD0000040700202021020C9D
:1043C00001D010211046020A01D010460839020916
:1043D00001D01046091F820801D01046891E4208EC
:1043E00001D0881E7047081A704730B47446641EA6
:1043F0002578641CAB4204D3635D5B00E31830BCDA
:1044000018471D46F8E702E008C8121F08C1002A35
:10441000FAD170477047002001E001C1121F002A45
:10442000FBD170470149086070470000040200207A
:10443000F8B505460C46002605E00A212846FBF79C
:104440004FFE0546761C1E488542F6D82F4605E0ED
:104450000A213846FBF744FE0746761C002FF7D1A9
:10446000184885420AD9411C2846FBF739FEE070FE
:10447000E0787D21C90048432D1A01E00020E0705A
:10448000632D09D964212846FBF72AFEA070A07885
:10449000642148432D1A01E00020A070092D09D99C
:1044A0000A212846FBF71CFE607060780A21484309
:1044B0002D1A01E00020607025703046F8BD000024
:1044C0000F270000E7030000F8B504460D4600265C
:1044D00005E00A212046FBF703FE0446761C164839
:1044E0008442F6D8274605E00A213846FBF7F8FD56
:1044F0000746761C002FF7D1632C09D9642120468A
:10450000FBF7EEFDA870A87864214843241A01E067
:104510000020A870092C09D90A212046FBF7E0FDEC
:10452000687068780A214843241A01E00020687006
:104530002C703046F8BD0000E703000010B50246BD
:104540001046002916D11C4B1B68984204D21B4B05
:10455000186801231A4C6354184B1B68984205D9FC
:10456000164B18680123164C635423E00023144CA7
:1045700063541FE00C234B43124C1B195B688342AE
:1045800006D90C234B431B19586801230C4C635468
:104590000C234B430B4C1B199B68834207D20C2303
:1045A0004B431B1998680123054C635402E0002318
:1045B000034C635410BD0000A8000020AC00002094
:1045C00029010020CC58000802469000084B1858DA
:1045D00001400848835C0846D8400146002A01D1C2
:1045E000C90103E0042A00D100E00902084670472F
:1045F0000C5800082058000810B501200849086030
:104600007D20C0004860074888600120C860002005
:1046100008610549087001226420FFF7FBFA10BD0C
:1046200074050020B80B00001C01002010B50446E2
:1046300001200B4908602068486060688860E06875
:10464000C86000200861012006490870012264202A
:10465000FFF7E0FA142202497020FFF7DBFA10BDE1
:10466000740500201C010020F7B582B02FA000685F
:1046700000902F4800680321C90388432C49086033
:1046800001A90298FFF720FFC5B2042D06DD2848D6
:1046900000680121C9030843254908602F46042DFD
:1046A00000DA042500243CE0214A039812681043F4
:1046B00001462046FFF788FF0646002C06D01D481D
:1046C0000068C05DA04201D1802006430020610047
:1046D000194A5052AC421DDA042C1BDA032C0BD1C0
:1046E00069460498085C6100505260001146085AFF
:1046F00030436100505212E001A8005D0F49085C90
:1047000061000D4A505260001146085A3043610062
:10471000505204E008480089304307490881601C72
:10472000C4B2052CC0DB05B0F0BD0000007800006D
:104730006C000020700000207C000020255800083C
:10474000F8B506460F46534800685349084051499A
:104750000860FCF787F95149087051480078002833
:1047600006D04C4800680121C90408434949086043
:104770004C480078002807D14B480078002803D126
:104780004A480078002806D0424800680121890480
:104790000843404908604648007800280AD0454848
:1047A0000078002806D13B4800680121090508432C
:1047B000384908604048007800283BD101203F4933
:1047C0000870364800785A2806DB324800683C49B1
:1047D0000843304908602DE030480078462807DB60
:1047E0002C4800683649083908432A49086021E006
:1047F0002A480078322807DB2648006830494839C3
:1048000008432449086015E0244800781E2806DB88
:10481000204800682B4908431E4908600AE01F48E9
:1048200000780A2806DB1B4800680121C9050843F7
:1048300018490860002429E01648006838430146FA
:104840002046FFF7C1FE0546002061001E4A505277
:10485000042C14DA305D002805D0042C03DA305D16
:104860006100505203E000206100174A505260007E
:104870001549085A28436100134A505204E012486F
:104880000089284310490881601CC4B2052CD3DB81
:10489000F8BD00006C000020B76D62FF6A000020C8
:1048A0000B000020E7010020180000200A00002073
:1048B0000C000020040000208B0000202D010020AF
:1048C00048128000001080007C000020074800781B
:1048D000002809D106480078002805D1054800784D
:1048E000002801D1012070470020FCE719000020BA
:1048F000E7010020180000205A480078022802D161
:1049000000205849087057480078800056490858D8
:104910000069544909788900544A5158084054495B
:10492000504A1278895CC84000281ED14D48007852
:1049300040005049085A96280BDD00204949097863
:1049400049004C4A505201214B48464A1278815442
:104950002FE04448007840004649085A401C41492D
:1049600009784900434A505223E000203D49097824
:104970004900404A50523B48007840003F49085A9D
:104980000A280BDD00203749097849003B4A50527C
:1049900000213948334A127881540AE031480078BE
:1049A00040003649085A401C2E4909784900334ACC
:1049B000505233482B490978405C40002E49294A1F
:1049C0001278895C08438007800F2D49254A1278A8
:1049D0008854084623490978405C03281FD12148A0
:1049E000007840002749085A274988420BDD0020FB
:1049F0001C4909784900234A505201212348194A89
:104A00001278815428E01748007840001D49085A60
:104A1000401C1449097849001A4A50521CE00020F1
:104A2000104909784900174A505215480D4909782C
:104A3000405C012805D1012115480A4A12788154A9
:104A40000AE00F4807490978405C022804D1012197
:104A50001048044A1278815402480078401C0149E9
:104A60000870704760000020745700087C570008E9
:104A70004C0000204E000020610000205400002067
:104A8000630000205A000020AC0D00005E000020F2
:104A9000520000205800002010B50C4BDB787D241C
:104AA000E400634319460A46084B9B786424634339
:104AB00019465218054B5B780A246343194652186D
:104AC000024B19785218104610BD00002201002038
:104AD00030B501464B000E4CE25A002015E0012390
:104AE00083401340002B07D043000A4CE35A840054
:104AF000094D2C59A36206E04300064CE35A84009A
:104B0000054D2C59A361431CD8B20B28E7D330BD07
:104B10007C000020B057000884570008F3B581B02E
:104B2000664800686649084064490860694601981B
:104B3000FFF77EFCC5B2FBF795FF6249087062483B
:104B4000007885420BDC61480078002807D05B487C
:104B50000068012109040843584908600AE05C48DC
:104B60000078854206DD554800680121C9030843E5
:104B7000524908605748007800280AD05648007803
:104B8000002806D14D4800680121090508434B491A
:104B9000086052480078002806D048480068012183
:104BA000C9040843454908604D480078002807D1EA
:104BB0004C480078002803D14B480078002806D0E4
:104BC0003E4800680121890408433C490860474881
:104BD000007800283BD101203C4908703948007812
:104BE0005A2806DB354800684149084333490860C4
:104BF0002DE034480078462807DB304800683C49FF
:104C0000083908432D49086021E02E4800783228F1
:104C100007DB2A48006836494839084327490860B5
:104C200015E0284800781E2806DB24480068314932
:104C30000843224908600AE0224800780A2806DB77
:104C40001E4800680121C90508431C4908602E461A
:104C5000042D00DA042500242DE0184A0298126879
:104C6000104301462046FFF7AFFC0746002C06D054
:104C700021480068805DA04201D1802007430020C8
:104C800061001E4A5052AC420EDA042C0CDA68461F
:104C9000005D1B49085C6100505260001146085AD3
:104CA00038436100505204E01448008938431349E6
:104CB0000881601CC4B2052CCFDBFEBD6C00002057
:104CC000B76D62FF6A000020680000202D010020FF
:104CD000690000200C000020040000200B000020D0
:104CE000E7010020180000200A0000208B000020AF
:104CF0004812800000108000700000207C0000201E
:104D00002558000870B504460D460548201A84B29F
:104D1000A100044A88182946FFF712FD70BD000063
:104D2000DC0500002F5800080D214143074A89186F
:104D3000074A11600749095C091D074A11700549B6
:104D4000095C891C054A117070470000C6570008AD
:104D5000700000200758000869000020680000204B
:104D600070B505460C46022D13D1A200324BD21865
:104D7000927814235A43314BD218A300304EF35883
:104D80009B00D25A90B2A2002E4B9958FFF7BAFF5F
:104D900050E0012D01D0032D24D12B48005D0128C6
:104DA00014D1A000274A11582848FFF7ABFF284824
:104DB0000078401C2649087008460078022839DD32
:104DC0000020214908552249087033E000201E497F
:104DD0000855A2001B4B9958A200194B9858FFF791
:104DE0009DFE27E01848005D012814D1A000154A57
:104DF00011581648FFF786FF15480078401C1449E3
:104E0000087008460078022814DD00200E49085575
:104E10000F4908700EE000200B490855A300064E0C
:104E20009B19DA78A300074EF158A300044EF058FE
:104E3000FFF71AFC70BD0000B70100203001002010
:104E4000880500209401002029010020EA050000C7
:104E50002101002010B50020244908702448007862
:104E600000280AD023480078002806D102202249D1
:104E7000087001201D49087023E0204800780028B0
:104E800009D01C480078002805D101201A49087073
:104E90001649087015E01A48007800280AD015480D
:104EA0000078002806D104201349087001200F491A
:104EB000087006E013480078002802D000200E4950
:104EC000087010480078002803D1084800780028AE
:104ED0000BD00D480078FEF771FC0B4908700846AE
:104EE00001780548007800F0BFF810BD8E00002062
:104EF000190000208B00002095000020E701002011
:104F0000180000208800002096000020FCF75EFFBB
:104F1000FFF77CF8FEF7C8FCFEF79CFCFEF756FC9A
:104F2000FEF798FDFEF7C4FD3348002101604160A3
:104F30008160C16020213148FBF700F93048002131
:104F4000016041608160C160FDF760FFFDF728FFEF
:104F500000F010FB00F09CFA00F068F84AE02948E5
:104F6000007801282CD100202649087026480078B6
:104F7000401C2549087025480078401C23490870CA
:104F800023480078401C224908700846007805280C
:104F900004DB00F019FB00201D4908701A48007856
:104FA0000A2804DB00F0BAF80020174908701748F7
:104FB00000781D2804DBFFF74DFF0020134908701F
:104FC0001448007801280CD113480078012808D132
:104FD000124908701248C068022802D10120114904
:104FE000087011480078002804D0FFF785FC0020E5
:104FF0000D490870B3E7000044020020540200206D
:1050000074020020CA010020F2010020F0010020FB
:10501000F101002004000020D8010020E701002059
:10502000740500200B000020CD01002010B50124E4
:1050300001220A49B820FEF7BFFD084800788442E3
:1050400005D10120064908700649087005E00120D5
:105050000349087000200349087010BD0C010020AE
:10506000880000208A00002070B504460D46A0008C
:10507000124940186900405A114988420CDDE2008B
:10508000104BD218AB00D158A2000C4BD2186B00B9
:10509000D05AFFF737FE0FE0A100084A89186A00CE
:1050A000885C00F011F80646E000064A8018AA0065
:1050B00081583046FFF732FD70BD0000B00000207F
:1050C000DB050000C400002010B504462300FFF7F4
:1050D0008CF90805080B0E1114171A1D0C490868E5
:1050E00014E00B49486811E0094988680EE0084956
:1050F000C8680BE00649086908E00649086805E049
:10510000FBF752FC02E00449086800BF00BF10BD75
:105110003002002000000020300000201B480078F2
:1051200000282ED01A48007800281CD01948008882
:105130000F21C901084017490880084640880F21FF
:10514000C901084013494880084680880F21C901D9
:105150000840104988800846C0880F21C9010840CE
:105160000C49C88010E00C48006840000949085A02
:105170000F21C9010840084909684900054A5052F1
:1051800002E0002001490870704700007400002010
:10519000E60100207C000020780000200121064A62
:1051A0001170052802D1054A117004E00449086015
:1051B0000021024A1170704774000020E6010020AF
:1051C00078000020F8B504460E461546A000404978
:1051D000085C00281DD10220801B3E490D5400F0C0
:1051E000B5F90746A0003A4BC018C278A0003A4B68
:1051F00019583846FFF738FA00F0A8F90746214653
:10520000FFF79CF9A100354A50500221881BFFF797
:10521000C5FFA0002E49085C01281ED1A2000B4644
:10522000D218927814235A432D4BD218AB00D05881
:10523000A200294B9958FFF771FCA000244940189F
:1052400080781421484326494018A9004058A100FD
:10525000224A50500520FFF7A1FFA0001C49085C1E
:10526000022815D1A2000B46D218927814235A4373
:105270001B4BD218AB00D25A90B2A200164B9958D1
:10528000FFF740FDA00015490D500520FFF786FFF0
:10529000A0000F49085C032818D1801B11490D5448
:1052A000FFF7FAFB0746A0000B4A11583846FFF7F4
:1052B00035FCFFF7F1FB07462146FFF73FF9A10058
:1052C000064A50500321881BFFF768FFF8BD000015
:1052D000B70100202601002094010020880500204D
:1052E000300100202201002010B5002409E00C202C
:1052F00060435C4908580068A1005B4A5050601C3C
:10530000C4B2032CF3D3012000F04EF9002830D0B2
:1053100056480078012815D155480078401C54495A
:10532000087008460078032801D100200870514811
:1053300000210180418003214F48FAF7FFFE002041
:105340004E4908704948007802286AD14C480078D4
:10535000401C4B4908704648007880004949401875
:1053600040784749097888425BD100204449087059
:1053700057E0002000F018F9002836D03B480078AC
:1053800002282AD13A48007880003E49085C00286B
:105390000DD13A480078401C38490870084600781A
:1053A000022801DD002008700020354908703048CF
:1053B000007880003349085C032832D12F480078F8
:1053C000401C2E49087008460078032801DD0020A3
:1053D000087000202A49087023E02448007801283A
:1053E0001FD10220214908701BE0002000F0C8F8FE
:1053F000002816D01D480078012804D11A48FFF76C
:1054000015F9FCF73DFD19480078022809D1012063
:105410001649087000201C4908701949087017497E
:1054200008701A49124A1278885CFFF77DFC0F4811
:105430000078012809D10E4909788900114A505C89
:105440000B490978FFF78CFC0BE00848007802282C
:1054500007D10B4802780948017805480078FFF722
:10546000B1FE10BDCC580008880500202C0100209A
:105470001E01002022010020260100201F01002023
:1054800020010020B701002074000020B00100209E
:1054900010B5012214496420FEF78EFB13480078F2
:1054A0001149097888420FD1142211497020FEF762
:1054B00083FB04220F495620FEF77EFB04220E498F
:1054C0006020FEF779FB01E0FFF796F80848406896
:1054D0006421484309490860054800890A21484376
:1054E00064380749088010BD1D0100201C01002000
:1054F00074050020AC000020A8000020000000205F
:105500002E000020F8B506460C46FBF791F8051E64
:105510000F4600D00120014349000B484908411AB9
:10552000C90F0DD0002E01D0012100E000210C4355
:1055300061004908401AC00F02D10120FEF772FF36
:1055400028463946F8BD00000000F07F10B5084B32
:105550009B786424634319460A46054B5B780A240A
:10556000634319465218024B19785218104610BD61
:105570002601002010B50220FFF7D6FB10BD000069
:1055800001460020064A525C002A01D0012200E0B8
:10559000002210460022024B5A54024B5A547047C4
:1055A0005E000020520000200146064A525C002A9C
:1055B00001D0012200E0002210460022014B5A5483
:1055C000704700005200002010B5474800780128BD
:1055D0000CD146480078012808D1454800780028B9
:1055E00004D1444801780020FFF73EFDFFF76EF933
:1055F000002810D04048007800280CD1FFF7C0FFE9
:10560000002808D001203C4908703C480078012857
:1056100001D10020087038480078012805D1FFF733
:1056200063FE0020304908705CE0354800780428AB
:105630002ADD2D480078002811D000202A49087062
:1056400001210320FFF710FD00202E4908702E498C
:10565000087001222B49B820FEF7DCFA10E0012087
:105660002149087000210320FFF7FEFC0120254995
:1056700008702549087001222249B820FEF7CAFAAD
:1056800000201F4908702DE020480088401C1F4959
:10569000088008460088022809DD002018490870A3
:1056A0001A490880FFF76CFF0120FFF769FF1848CF
:1056B0000078012804D117480078401C154908706B
:1056C0001448007808280DDD0020114908701149A0
:1056D00008700D480078012801D1034908700120A5
:1056E0000249087010BD0000880000208F000020D3
:1056F0008E00002096000020980000201800002056
:10570000970000200C0100208A0000209A00002051
:10571000890000209400002010B513480068400064
:105720001249085A104909688900114A515888627B
:105730000D480068401C0C490860084600680528B0
:1057400001D10020086008480068FFF7C1F9064849
:10575000006840000549085A034909688900044A5D
:105760005158886110BD000010010020A4580008A5
:1057700090580008000400480000004804000000A1
:1057800000800000000400480004004800040048B5
:1057900000040048000400480004004800040048D9
:1057A00000080048000800480008004800040048BD
:1057B00008001000200040008000000100020020CE
:1057C0000040008002000000000000020000000015
:1057D00000000002020203020303020103020100AF
:1057E000020101010103020202030201000202029E
:1057F0000202020202020302010000000000000097
:105800000000000000000000030202020F00000080
:105810007000000080030000001C000000E0FF009A
:105820000004070A0D3F065B4F666D7D077F6F0022
:105830007C7D5473305078003877390078796D006A
:105840005E5479795510787978775E6D505E775E21
:10585000773E7C105077736E38795E79543F5400F0
:105860005E5E3F54791C794050794040543F40007F
:1058700071713F783877715538395050773877786B
:105880006D797878397C395479733F79543F5E006B
:1058900000040048000400480004004800040048D8
:1058A00000000048008000400020001000010000BF
:1058B00001000200030004000400200004040000B2
:1058C000840000001400000006000000780500209D
:1058D0001E000000307500007C0500200F00000055
:1058E000F401000080050020000000000F270000E8
:1058F0000000000000000000010203040607080980
:1059000000000000010203042859000800000020E4
:105910000802000018070008FC59000808020020CF
:10592000B00900001644000801100223011AF425F2
:1059300023D00723A00F8B7017341A02100118030D
:10594000140506127C127D5A547819022905091D86
:10595000861206120512072011ED05F105F205EB7E
:1059600005EC05F005F305042012041A4004011E9D
:10597000272C01B80B102723B80B2330751480385F
:105980000114C0D40114F049020B10E0933EE986E3
:10599000291023EC051AEB041ADD04813A965C21E8
:1059A0002358021AEE042384031BC0126032255AC6
:1059B0004B2122E11AE7341AE8049AE93C323232E8
:1059C0003C32463250325A12041A22051202128117
:1059D00012021A10042902111A08061904160303E8
:1059E0000404043404030A120A15010105041A020E
:0C59F0006F0119E9C4011153127A000084
:04000005080000B13E
:00000001FF
