:020000040800F2
:10000000980D0020C5000008E53F000837310008C2
:1000100000000000000000000000000000000000E0
:100020000000000000000000000000004142000845
:10003000000000000000000025410008D94400082D
:10004000D700000800000000D7000008D700000813
:10005000D7000008650B0008D70000086F0B0008E8
:10006000000000008D0A00089D0A0008AD0A000883
:1000700071070008E1450008D700000800000000F3
:10008000D70000080000000000000000D7000008B2
:1000900000000000D7000008D7000008593200080F
:1000A00000000000D7000008000000000D4E00080E
:1000B0000348854600F00EFB004800475D560008E7
:1000C000980D00200448804704480047FEE7FEE7FB
:1000D000FEE7FEE7FEE7FEE76D450008B100000819
:1000E00030B50B46014600202022012409E00D46D0
:1000F000D5409D4205D31D469540491B2546954058
:1001000040191546521E002DF1DC30BD10B5202AD5
:1001100004DB0846203AD040002110BD0B46D340F6
:10012000D0402024A21A91400843194610BDD2B2F3
:1001300001E00270401C491EFBD270470022F6E726
:1001400010B513460A4604461946FFF7F0FF20464D
:1001500010BDF8B502464A40D40F42004B00520889
:100160005B089A4202D20246084611464A0023D052
:10017000C30D4A00DDB2120EAD1A202D35DA490248
:100180000126490AF6058A19002C00D05242202186
:100190004F1B1146B9402A411018C20D9A4221D076
:1001A000002C17D0012D08DCDA05801AD20F801937
:1001B000D207DBB200F0A4F9F8BDDA05801A0123FA
:1001C00040001B06C01880185A428018CA0F1043FE
:1001D000490007E04908C2071143DA05801A80196F
:1001E0004008801800F084F9F8BD61000122511A1E
:1001F000001BF7E70122D2075140AAE70122D207EC
:100200005040A6E7024670B54A40D30FDB074000D6
:100210002DD04A002AD0010E140E00021202091934
:10022000400A520A8418E50104465443000A120A9F
:100230002E045043A4194219200CC543AA18120CCD
:100240000125AD03521C521912047F39240400D039
:10025000521C104301D44000491EC2B20C06C00912
:100260002018401C4008802A02D003E0002070BD06
:1002700040084000002900DA0020184370BD70B526
:1002800002464A40D50F40004A00ED074008520898
:10029000002814D0002A12D0C40DD30D4102012031
:1002A000C0055202490A520AE41A091812187D348C
:1002B000914201D3641C00E04900002C01DA0020C7
:1002C00070BD0023914201D3891A034340084900BD
:1002D0000028F7D100290AD0914202D10121C90793
:1002E00005E0914201D2012101E00121C943E0056D
:1002F000C018401900F0FCF870BD0000F0B50C46C5
:100300005C4085B0E40FE40703944C0000266408C9
:1003100059009446490802460296224321D062467B
:100320000A431ED06200570D4A000E032303550DE9
:10033000012402462C492405781B1B0B360B401860
:1003400023432643614600901C46501AB44103D310
:100350000098401C009002E0921800985B41002831
:1003600003DA0020014605B0F0BD00200121090597
:100370000746864611E064461D46141BB54106D368
:100380006546521BB341744607430C43A646CD074E
:1003900040084908284392185B4105460D43EAD1BD
:1003A0001046184313D06046194650407140084328
:1003B00006D06046101AB34106D20122002306E09F
:1003C00000220123DB0702E00122D24353100098F0
:1003D00074460105381C6141029C039D0019694166
:1003E00000F0C7F8BFE70000FD030000C217C10F0F
:1003F000504010B54018CA079623002100F080F83D
:1004000010BD10B500229623114600F079F810BDFA
:100410000EB505490291002100910A460B46019153
:1004200000F0B4F803B000BD330400004100400206
:100430000122400AD205090E80187F2901DA002026
:100440007047962903DC9622511AC84070479639A6
:10045000884070474A0009030123090B1B05194313
:10046000094B10B5520D9A4201DA002010BD064B1F
:1004700034339A4203DC9A1AFFF748FE10BD034951
:100480005118884010BD0000FF030000CDFBFFFFA6
:10049000C20FD207400040080BD0C10D0723DB017B
:1004A000C91840020905400A1143C2084007114318
:1004B0007047002001467047CB0FDB07490010B59D
:1004C000490802460A4307D00A0D07240903E4013C
:1004D000090B121B002A01DC002010BDC900440FCB
:1004E0000C43C100E018D205801800F001F810BDDF
:1004F000002904DA401C490001D14008400070473F
:1005000070B40024050C05D11024000402D1002988
:1005100021D01124050E01D100020834050F01D1AC
:100520000001241D850F01D18000A41C002801DBDF
:100530004000641C002908D020252E1B0D46F540E4
:10054000A14000D001212943084301061B1B000ADA
:10055000DB1D02D5002070BC7047DB051818801821
:100560000029F8DA401C4900F5D170BC4008400071
:10057000704710B5002B08DA0024401C6141921826
:100580005B411A4301D14008400010BDF0B51FB4D3
:1005900082B005460C0003D0084604F03FFC02E0A0
:1005A00004F03CFC2030024600902146284600F032
:1005B000A3F8049B059A04460F46184311430843C9
:1005C00014D0184610431BD0009840210A1A184630
:1005D0000599FFF79BFD05460E46009A059904987C
:1005E00000F08AF8084305D0012004E0204639468F
:1005F00007B0F0BD0020C11705430E432C4337431D
:1006000000990E986305401A7905E40A00220C430C
:10061000FD0A0A3002D500200146E9E7010510195C
:1006200069410C9C0D9D00196941FFF7A2FFDFE7AE
:10063000FEB500231A461B1A8A4103DB002001463F
:1006400003B0F0BD4A000D0301212D0B0905520D29
:100650000D43D10702D100186D41521E5110FF31D8
:10066000FF310131002704463E463846009701918C
:100670000246012100200905FFF748FDC319714119
:10068000F818324684468E464A4161462846611A29
:10069000904104D36046241A954176461F4624199A
:1006A00000986D41401C00903428E1DDF919304676
:1006B0007041091BA84103D20022D243134601E036
:1006C0000022134601980105381C7141FFF751FFC4
:1006D000B6E70000064C0125064E05E0E36807CCAE
:1006E0002B430C3C98471034B442F7D3FFF7E4FC9B
:1006F000945E0008B45E000810B5202A04DB0146B1
:10070000203A9140002010BD914020239C1A0346BE
:10071000E3401943904010BD70B58C180578401C1B
:100720006B075B0F01D10378401C2A1106D10278B8
:10073000401C03E006780E70401C491C5B1EF9D17A
:100740002B0705D40023521E0DD40B70491CFAE769
:100750000378401CCB1A921C03E01D780D70491CD5
:100760005B1C521EF9D5A142D8D3002070BD0000F9
:1007700010B5024800F0A0FB10BD0000700700207B
:1007800070B505466C6A606C50210840002835D170
:10079000606C01214902084360642068C06803213D
:1007A00089020840002825D1206A002822D120682B
:1007B00000680821084008281CD1206880680421AE
:1007C0000840800800280DD1206840680C2188432B
:1007D00021684860606CFF21013188430121084392
:1007E000606407E0606C202108436064A06C012114
:1007F0000843A064204600F0F7FA03E0E06B016BC9
:100800002846884770BD70B505466C6A606C40210B
:1008100008436064A06C04210843A064204600F0F3
:100820004AFB70BD70B50446656A284600F042FB7D
:1008300070BD000038B504460025002000902068F7
:1008400080688007800F01280ED120680068C007EB
:10085000C00F002806D12068C0680121C9030840E4
:10086000884201D1012000E00020002843D1206807
:10087000806822490840002801D1012000E00020C2
:10088000002809D1606C102108436064A06C01212C
:100890000843A064012038BD206880680121084316
:1008A00021688860164917480068FFF719FC009016
:1008B00002E00098401E009000980028F9D100F056
:1008C0006DFF05460EE000F069FF401B022809D9C4
:1008D000606C102108436064A06C01210843A0648F
:1008E0000120D8E720680068C007C00F01214840F8
:1008F00048400028E7D00020CDE700001700008026
:1009000040420F007802002070B504460D460023D7
:100910001FE09800265898001F4908589900615810
:10092000401899001C4A505059001C48405A361A29
:10093000E9001046083008189900415830467043C5
:100940000918EA001448083010189A008150581C01
:10095000C3B2022BDDD37D2149016068884202D8F1
:100960006068642804D20E480078401C0C49087066
:100970000C480078A02809DB00200A4908700848C4
:10098000007803F05FFC00200549087005480078F6
:10099000401C0449087070BDCC020020C402002035
:1009A0005E0000205D00002010B500200C49C860EA
:1009B000002409E00A48C068A1000A4A51584018BA
:1009C0000749C860601CC4B20A2CF3D30449C86844
:1009D0000A21FFF785FB0249C8600846C06810BDC0
:1009E000BC0200208002002070B5002432E000200C
:1009F000A100214A5050002514E0282060431F49DF
:100A00004018A9004058A1001B4A51584018A100A5
:100A10005050002128206043184A8018AA008150B5
:100A2000681CC5B20A2DE8DBA100134A50580A2100
:100A3000FFF756FBA100104A5050A1001048415842
:100A4000282060430F4A80180F4A12789200815084
:100A5000601CC4B2022CCADB0B480078401C0A4957
:100A6000087008460078092804D950220549C82092
:100A700003F02EFB70BD00001C000020FC020020D3
:100A8000F40200204C0300206100002010B5024851
:100A900000F06EFC10BD0000BC07002010B502483D
:100AA00000F066FC10BD00004C08002010B50248A4
:100AB00000F05EFC10BD00005009002010B5044697
:100AC000054A2168881A1421FFF70AFB8000206478
:100AD00001480838E06310BD0800024030B5012429
:100AE000056CAC40C56B6C60046863604468102C96
:100AF00004D10468A2600468E16003E00468A160B6
:100B00000468E26030BD000010B51148007800288C
:100B10000BD0104909686422514308460E49096800
:100B2000FFF7DEFA0D4908700EE00D480078002846
:100B30000AD00849496864225143084606490968B1
:100B4000FFF7CEFA054908700448007810BD000090
:100B500006000020BC020020000000202C00002025
:100B60000700002010B5012000F00AFD10BD10B5EF
:100B7000402000F005FD10BD7047F8B50446002583
:100B80000026002700BF4020005D012801D102207F
:100B9000F8BD01214020015500BF20688068800712
:100BA000800F01280CD1206800680840002805D17A
:100BB0002068C068C9030840884201D1012000E0D4
:100BC000002000283FD1606CFF21013188430221C1
:100BD000084360642068C0688707BF0F2068C0684A
:100BE000800880002168C860206880680121C907EA
:100BF00008432168886000F0D1FD064611E000F04E
:100C0000CDFD801B02280CD9606C02218843102185
:100C10000843606400BF00214020015500BF01204F
:100C2000B6E720688068C00FC0070028E7D12068B9
:100C3000C06838432168C860606C02218843012184
:100C40000843606404E0606C20210843606401256F
:100C500000BF00214020015500BF284698E7000052
:100C6000F8B504460D460026002000900121090732
:100C7000A06B884215D0A06B012812D0A06B02286F
:100C80000FD0A06B03280CD0A06B042809D0A06B58
:100C9000052806D0A06B062803D0A06B072800D03B
:100CA00000BF00BF4020005D012801D10220F8BD37
:100CB00001214020015500BF2068806804210840C0
:100CC000800800287BD14449686888425BD020684E
:100CD000806A2A78012191400843216888620121B5
:100CE0000907A06B884229D0A06B012826D0A06BF1
:100CF000022823D0A06B032820D0A06B04281DD08D
:100D0000A06B05281AD0A06B062817D0A06B072867
:100D100014D0A868216849694907490F88420DD055
:100D200020684069C008C0002168486120684069A7
:100D3000297A4907490F0843216848612868102823
:100D400002D0286811283FD12448806829681029DA
:100D500001D1C90401E00121890508431F498860C8
:100D60002868102830D11E491E480068FFF7B8F9DE
:100D70000A214843009002E00098401E009000982D
:100D80000028F9D120E02068806A2A78012191406A
:100D90008843216888622868102802D028681128B2
:100DA00012D10E4880682968102902D1C90402E0D6
:100DB00005E00121890588430849886004E0606CEA
:100DC000202108436064012600BF00214020015516
:100DD00000BF30466BE70000011000000027014013
:100DE00040420F007802002010B5044626480078E3
:100DF000012810D125480078401C24490870084675
:100E0000007808280CD10020087021480068401C98
:100E10001F49086004E000201E4908701C49086052
:100E20001D48844229D11D4801781D48FFF76CFDFB
:100E30001C480088401C1B4908800846008819216E
:100E4000490188420CD100201449087015490880D6
:100E500001201549087003F0EFFA012013490870CA
:100E600010480088FF219131884203D301200B49AB
:100E7000087002E000200949087004F019FF012001
:100E80000B49087010BD00005002002062020020D3
:100E9000540200200C000020700700206102002096
:100EA00048020020400200204202002043020020AD
:100EB000450200207047704710B50446206800685E
:100EC00004210840042804D1206840680840042810
:100ED0000AD02068006808210840082840D120680E
:100EE0004068084008283BD1606C10210840002869
:100EF00003D1606C4901084360642068C068032125
:100F000089020840002825D1206A002822D12068C3
:100F100000680821084008281CD120688068042146
:100F20000840800800280DD1206840680C218843C3
:100F300021684860606CFF2101318843012108432A
:100F4000606407E0606C202108436064A06C0121AC
:100F50000843A0642046FFF747FF0C202168086083
:100F6000206800688021084080280ED120684068F1
:100F70000840802809D1606C49020843606420461B
:100F800000F006F9802021680860206800681021C0
:100F9000084010281AD1206840680840102815D150
:100FA000606B012805D02068C068C007C00F00280A
:100FB00009D0A06C02210843A064102021680860B9
:100FC0002046FFF778FF10202168086010BD000060
:100FD00070B5044600260025002C01D1012070BD0B
:100FE000606C002806D1A0640021402001552046F5
:100FF00000F0D0F8606C1021084000287ED1002E4F
:10100000FCD1206880680421084080080028F5D1C0
:10101000606C89018843022108436064206880680D
:101020008007800F01280DD120680068C007C00F1D
:10103000002805D12068C06889030840884201D192
:10104000012000E0002000280FD12068C06818218E
:101050008843A16808432168C8602068006980004F
:10106000800861680843216808612068C0684649B3
:1010700008402168C860A0698003E169C90308438A
:10108000216A49030843616B012902D00121090348
:1010900000E000210843E16808432169022901D1E9
:1010A000042100E000210843216B49000843054367
:1010B000606A01280ED1206A002803D101200004B3
:1010C000054307E0606C202108436064A06C0121A7
:1010D0000843A064FF21C231A06A884203D0E16ABC
:1010E000A06A084305432068C06828432168C86097
:1010F00001210907A06B884216D000E03DE0A06BFB
:10110000012811D0A06B02280ED0A06B03280BD0B1
:10111000A06B042808D0A06B052805D0A06B06287A
:1011200002D0A06B07280DD120684069C008C0001C
:101130002168486120684069218F4907490F0843A9
:10114000216848612068C06810490840A84208D159
:101150000020A064606C0221884301210843606480
:1011600010E0606C02218843102108436064A06C89
:1011700001210843A064012604E0606C10210843AB
:101180006064012630462AE71902FEFFE7FF3F832D
:101190007047000010B586B00446142101A8FEF780
:1011A000CDFF2949206888424CD100BF274880697B
:1011B0004915084325498861084680694915084052
:1011C000009000BF00BF00BF2048406909020843EB
:1011D0001E494861084640690121490408400090C1
:1011E00000BF00BF9E2001900320029000200390CA
:1011F00001A90920C00600F0D3F915481549086077
:10120000002048600021134881608021C16089006E
:10121000016189004161202181610902C16100F001
:101220001FF9002801D0FFF7A7FC00BF0948E063C1
:10123000446200BF002211460C2000F0C5FE0C20C5
:1012400000F0B6FE06B010BD0024014000100240C0
:1012500008000240BC070020F8B504460D461646BB
:10126000002720688068042108408008002848D1B1
:1012700000BF4020005D012801D10220F8BD0121FE
:101280004020015500BFE069012803D02046FFF748
:10129000D1FA0746002F35D1606C1B490840FF2169
:1012A0000131084360640020A06400BF0021402099
:1012B000015500BF1548E16B88621548E16BC862B3
:1012C0001448E16B08631C202168086020684068AE
:1012D00010210843216848602068C0680121084344
:1012E0002168C86022681146403133462A46E06BC7
:1012F00000F0E8F8206880680421084321688860CD
:1013000000E002273846B9E7FEF1FFFF8107000839
:10131000250800080708000870B5044600252120AC
:10132000005D022803D00420A06301251EE0206890
:1013300000680E2188432168086020680068400822
:101340004000216808600120216C8840E16B486002
:1013500001212120015500BF00212020015500BF9F
:10136000606B002802D02046616B8847284670BD1C
:1013700070B50446E06B0568206806680420216C9F
:101380008840284000281BD004203040002817D077
:101390002068006820210840002805D120680068E6
:1013A00004218843216808600420216C8840E16B97
:1013B0004860E06A002852D02046E16A88474EE043
:1013C0000220216C88402840002823D00220304091
:1013D00000281FD02068006820210840002808D17C
:1013E000206800680A2188432168086001212120C3
:1013F00001550220216C8840E16B486000BF00214C
:101400002020015500BFA06A002828D02046A16AEC
:10141000884724E00820216C8840284000281ED0FE
:101420000820304000281AD0206800680E21884328
:10143000216808600120216C8840E16B4860012030
:10144000A06301212120015500BF0021202001556A
:1014500000BF206B002802D02046216B884770BD5A
:1014600070B504460025002C01D1012070BD022179
:10147000212001552068056811480540A168606871
:101480000843E16808432169084361690843A16989
:101490000843E16908430543206805602046FFF7DB
:1014A0000DFB0020A062E06220636063A063012165
:1014B000212001550021202001550020D6E7000001
:1014C0000FC0FFFFF8B504460D4616461F46002024
:1014D000009000BF2020005D012801D10220F8BD4E
:1014E00001212020015500BF2120005D01282DD1C0
:1014F0000221212001550020A063206800684008D7
:101500004000216808603B46324629462046FFF7E6
:10151000E5FAE06A002806D0206800680E2108433A
:10152000216808600BE0206800680A2108432168F0
:1015300008602068006804218843216808602068EA
:101540000068012108432168086006E000BF00210F
:101550002020015500BF022000900098BFE731B560
:1015600000F01CF90546009C601C002800D0641C9B
:1015700000BF00F013F9401BA042FAD338BD7047FA
:1015800010B50446054840692040002804D00348AF
:1015900044612046FFF7F3FF10BD00000004014046
:1015A00078B50346002200240020DEE001269640A4
:1015B0000D6835402C46002C7ED04D68022D02D09F
:1015C0004D68122D15D1D508AE001D462035A859FD
:1015D0005507EE0E0F25B5400646AE43304656077A
:1015E000F60E0D69B5402843D508AD001E462036DD
:1015F0007051186856000325B5400646AE43304684
:101600000D79AD07AD0F5600B540284318604D6801
:10161000012D08D04D68022D05D04D68112D02D046
:101620004D68122D18D1986856000325B54006461E
:10163000AE4330465600CD68B540284398605868A0
:10164000012595400646AE43304610264D6835408C
:101650002D09954028435860D86856000325B540A9
:101660000646AE43304656008D68B5402843D860E4
:10167000012636074D683540B54275D100BF3E4D55
:10168000AD69012635433C4EB5613546AD69ED0780
:10169000ED0F009500BF00BF384D9608B600A85961
:1016A00095072E0F0F25B5400646AE433046092557
:1016B000ED06AB4203D100E056E000250FE0304DCF
:1016C000AB4201D101250AE02E4DAB4201D10225EA
:1016D00005E02D4DAB4201D1032500E0052596071D
:1016E000360FB5402843254D9608B600A851274D22
:1016F00028680546A5432846012636044D6835402E
:10170000B54202D1054625432846204D2860686829
:101710000546A5432846012676044D683540B54266
:1017200002D1054625432846184D6860A86805463D
:10173000A5432846012636054D683540B54202D1FD
:10174000054625432846114DA860E8680546A5438F
:101750002846012676054D683540B54202D105463A
:1017600025432846094DE860521C0D68D540002DE0
:1017700000D01BE778BD00000010024008000140C7
:101780000004004800080048000C00480004014024
:10179000002A01D0816100E0816270470148006841
:1017A0007047000074020020014600BF6820405CC2
:1017B000012801D10220704701226820425400BF55
:1017C000242269204254086800680C2290430A6869
:1017D000106008680068042210430A681060202224
:1017E0006920425400BF00226820425400BF0020FC
:1017F000E1E702464120805C20282FD100BF402035
:10180000805C012801D102207047012340208354CD
:1018100000BF242341208354106800684008400022
:10182000136818601068006801231B03984313684D
:101830001860106800680843136818601068006832
:10184000012318431368186020234120835400BFEC
:1018500000234020835400BF0020D5E70220D3E7B7
:1018600010B502460B4600214120805C20282ED175
:1018700000BF4020805C012801D1022010BD01245E
:101880004020845400BF2424412084541068006800
:101890004008400014682060106801680F2424028A
:1018A0000846A04301461802014310680160106811
:1018B00000680124204314682060202441208454BF
:1018C00000BF00244020845400BF0020D6E702203F
:1018D000D4E77047704770B5044620688569206872
:1018E0000668FF200130284000280AD080203040C0
:1018F000002806D0606C012108436064080221685A
:10190000C86101208002284000280AD08020304091
:10191000002806D0606C082108436064C801216873
:10192000C86101204002284000280AD080203040B1
:10193000002806D0606C0221084360640802216818
:10194000C861606C0B210840002803D0616C204600
:1019500001F078FD70BD70B5044620688569206887
:101960000668606B002804D0324629462046636B27
:10197000984770BD7047000010B50446002C01D197
:10198000012010BD4120005D002805D1002140202C
:101990000155204600F020FA2421412001552068FD
:1019A000006840084000216808600F21090660684F
:1019B000884321680861206880680121C903884341
:1019C00021688860E068012806D10121C903A06868
:1019D00008432168886005E021218902A068084346
:1019E00021688860E068022802D18002216848608E
:1019F0002068406814490843216848602068C0682E
:101A00000121C90388432168C860616920690843CE
:101A1000A169090208432168C860216AE069084396
:101A20002168086020680068012108432168086077
:101A30000020606420214120015500202063002106
:101A40004220015500209CE7008000027047000002
:101A5000FFB583B004460C9F0E9E00254120005D1B
:101A6000202871D1002F02D00D98002802D101202A
:101A700007B0F0BD00BF4020005D012801D1022069
:101A8000F6E701214020015500BFFFF787FE05461C
:101A900019230122D1032046009502F00DF80028F9
:101AA00001D00320E4E722214120015540214220BA
:101AB00001550020606467620D98608500206063B6
:101AC00000960195204604A90EC901F09BFE00284E
:101AD00010D0606C042806D100BF002140200155C1
:101AE00000BF0120C4E700BF00214020015500BF16
:101AF0000320BDE7608DFF280DD9FF202085092038
:101B000080020090208DC2B201231B06204604995A
:101B100001F0BAFF0CE0608D208509208002009062
:101B2000208DC2B201235B062046049901F0ACFF70
:101B300000BF3346002204212046009501F0BCFF7F
:101B4000002802D0032093E75FE02068406AC1B21A
:101B5000626A501C60621170208D401E2085608D6D
:101B6000401E6085208D002829D1608D002826D058
:101B70003346002280212046009501F09DFF002879
:101B800001D0032074E7608DFF280CD9FF20208549
:101B900000200090208DC2B201231B06204604992C
:101BA00001F072FF0BE0608D208500200090208DF9
:101BB000C2B201235B062046049901F065FF608DE7
:101BC0000028B6D12A463146204601F09EFF002863
:101BD00006D0606C042801D1012049E7032047E7C3
:101BE00020202168C86120684068094908402168B0
:101BF000486020214120015500214220015500BFAD
:101C00004020015500BF002032E7022030E70000ED
:101C100000E800FEFFB583B004460C9F0E9E002531
:101C20004120005D202870D1002F02D00D9800289F
:101C300002D1012007B0F0BD00BF4020005D0128A7
:101C400001D10220F6E701214020015500BFFFF736
:101C5000A5FD054619230122D1032046009501F078
:101C60002BFF002801D00320E4E72121412001556A
:101C70004021422001550020606467620D98608514
:101C80000020606300960195204604A90EC901F06A
:101C900002FE002810D0606C042806D100BF00218D
:101CA0004020015500BF0120C4E700BF00214020B3
:101CB000015500BF0320BDE7608DFF280CD9FF2030
:101CC000208500200090208DC2B201231B062046F3
:101CD000049901F0D9FE0BE0608D20850020009072
:101CE000208DC2B201235B062046049901F0CCFE90
:101CF00000BF2A463146204601F034FF002807D0B5
:101D0000606C042802D1012094E760E0032091E791
:101D1000616A481C6062087821688862608D401E94
:101D20006085208D401E2085208D002829D1608D62
:101D3000002826D03346002280212046009501F05D
:101D4000BBFE002801D0032074E7608DFF280CD96A
:101D5000FF20208500200090208DC2B201231B06A9
:101D60002046049901F090FE0BE0608D2085002054
:101D70000090208DC2B201235B062046049901F039
:101D800083FE608D0028B4D12A463146204601F0FA
:101D9000BCFE002806D0606C042801D1012049E770
:101DA000032047E720202168C8612068406809496E
:101DB000084021684860202141200155002142202F
:101DC000015500BF4020015500BF002032E702202E
:101DD00030E7000000E800FE10B586B0044614218C
:101DE00001A8FEF7ABF92B492068884250D100BF0B
:101DF0002948406901218904084327494861084668
:101E00004069012189040840009000BF00BF032001
:101E10008002019012200290012003900320049080
:101E20000120059001A91D48FFF7BAFB00BF1A4821
:101E3000C0690121490508431749C8610846C069BE
:101E4000012149050840009000BF00BF1448154912
:101E50000860002048600021124881608021C16034
:101E60000021016141618161C161FFF7F9FA002838
:101E700001D0FEF781FE00BF0A48E063446200BF64
:101E800000221146172000F09FF8172000F090F86C
:101E900006B010BD0054004000100240000400488D
:101EA000300002404C0800207047704770B504466F
:101EB000002C01D1012070BD14482168086014482D
:101EC000216808602168606848602168A0688860AF
:101ED000FFF764FC054606E0FFF760FC401B27287F
:101EE00001D90320E7E72068C0680028F4D1206802
:101EF0000169E068814203D02168E068086102E07E
:101F00000448216808600020D5E70000CCCC000020
:101F100055550000AAAA000002480068401C01496B
:101F2000086070477402002010B506480068102150
:101F3000084304490860002000F006F800F018F893
:101F4000002010BD0020024070B5044600F0B8F932
:101F500006467D21C900FEF7C3F8054600F020FDC6
:101F600000222146501E00F02FF8002070BD000016
:101F700008B500BF0D488069012108430B498861FD
:101F800008468069C007C00F009000BF00BF00BFB7
:101F90000846C069090408430449C8610846C06985
:101FA00009040840009000BF00BF08BD00100240B7
:101FB00000BFC206D20E01219140024A116000BF4B
:101FC0007047000000E100E070B504460D4616467B
:101FD0002946204602F008F870BD0000F8B5044616
:101FE00000260025012109042068084088427AD192
:101FF00000274B48C0690903084000280DD100BFE5
:102000004748C06908434649C8610846C069090491
:102010000840009000BF00BF012742480068FF2130
:1020200001310840002816D13E48006808433D4968
:102030000860FFF7B3FB064606E0FFF7AFFB801B27
:10204000642801D90320F8BD36480068FF2101311A
:1020500008400028F1D03248006A032109020840F4
:102060000546002D2DD060680840A84229D02C4894
:10207000006A884305462A48006A0121090408438A
:10208000274908620846006A012109048843244957
:10209000086208460562E807C00F002811D0FFF764
:1020A0007DFB064607E0FFF779FB801B1E4988424F
:1020B00001D90320C7E71A48006A02210840002816
:1020C000F1D01748006A0321090288436168084378
:1020D00013490862012F05D10846C06909048843E5
:1020E0000F49C86100BF2078C007C00F002807D083
:1020F0000B48006B80088000A1680843084908630A
:10210000202120680840202807D10548006B1021B5
:102110008843E168084302490863002093E7000010
:1021200000100240007000408813000070B50446A3
:102130000D4600265D480068C007C00FA8420ED2B9
:102140005A4800684008400028435849086008463B
:102150000068C007C00FA84201D0012070BD022155
:1021600020680840022807D151484068F021884380
:10217000A16808434E4948602078C007C00F002876
:102180005FD06068012808D14948006801214904EE
:102190000840002815D10120E0E76068022808D136
:1021A00043480068012149060840002809D1012060
:1021B000D4E73F48006802210840002801D10120EF
:1021C000CCE73B4840688008800061680843384994
:1021D0004860FFF7E3FA0646606801280FD107E080
:1021E000FFF7DCFA801B3349884201D90320B5E7A9
:1021F0002F4840680C2108400428F1D121E0606894
:1022000002280FD107E0FFF7C9FA801B294988424D
:1022100001D90320A2E7264840680C21084008287D
:10222000F1D10EE007E0FFF7B9FA801B214988429F
:1022300001D9032092E71E4840680C21084000287D
:10224000F1D11A480068C007C00FA8420ED917483C
:1022500000684008400028431449086008460068A8
:10226000C007C00FA84201D0012077E704212068F1
:102270000840042808D10E48406807210902884315
:10228000E16808430A49486000F032F808494968A3
:10229000F02211400909084A515CC840074908600A
:1022A0000020FFF751FE002058E700000020024008
:1022B00000100240881300007C5E000878020020B5
:1022C00001480068704700007802002000B5FFF761
:1022D000F7FF05494968072212021140090A034A1B
:1022E000515CC84000BD0000001002408C5E000838
:1022F000F0B589B024A001460EC9C06805AC0EC473
:10230000089025A001460EC9C06801AC0EC4049017
:102310000024002700250026002000902248446861
:102320000C202040002827D0042802D0082822D1E1
:1023300002E01E48009022E00F2080042040800C24
:1023400005A90E5C1848C06A0007000F01A90F5CC0
:1023500001200004204001210904884206D13946A9
:102360001248FDF7BDFE7043054602E010483546B1
:102370004543009503E000BF0C48009000BF00BF3C
:10238000009809B0F0BD0000020304050607080923
:102390000A0B0C0D0E0F10100102030405060708AE
:1023A000090A0B0C0D0E0F100010024000127A00EB
:1023B00000093D00F8B5044600252078C007C00F8D
:1023C000002871D0F94840680C21084004280BD03F
:1023D000F64840680840082812D1F44840680121B6
:1023E0000904084088420BD1F048006801214904E3
:1023F000084000286BD06068002868D10120F8BD33
:1024000000BF6068012807D1E8480068012109047D
:102410000843E649086031E0606800280ED1E348CF
:102420000068012109048843E04908600846006803
:10243000012189048843DD4908601FE060680528A0
:102440000ED1DA480068012189040843D7490860A1
:1024500008460068012109040843D44908600DE0DA
:10246000D2480068012109048843D0490860084621
:102470000068012189048843CC49086000BF606876
:10248000002812D0FFF78AF9054606E0FFF786F923
:10249000401B642801D90320B1E7C448006801212A
:1024A000490408400028F1D011E0FFF777F905460C
:1024B00006E0FFF773F9401B642801D903209EE76B
:1024C000BA4800680121490408400028F1D10221DE
:1024D00020680840022861D1B44840680C210840B7
:1024E00000280BD0B1484068084008281BD1AF48ED
:1024F0004068012109040840002814D1AB48006855
:1025000002210840002804D0E068012801D0012001
:1025100075E7A6480068F82188432169C900084387
:10252000A24908603AE0E068002820D09F4800688F
:10253000012108439D490860FFF730F9054606E090
:10254000FFF72CF9401B022801D9032057E79748D1
:102550000068022108400028F2D094480068F82161
:1025600088432169C90008439049086016E08F48F4
:102570000068400840008D490860FFF70FF90546E4
:1025800006E0FFF70BF9401B022801D9032036E7CC
:1025900086480068022108400028F2D108212068FE
:1025A0000840082831D1E069002817D07F48406AE8
:1025B000012108437D494862FFF7F0F8054606E02F
:1025C000FFF7ECF8401B022801D9032017E77748F2
:1025D000406A022108400028F2D016E07348406AA1
:1025E0004008400071494862FFF7D8F8054606E008
:1025F000FFF7D4F8401B022801D90320FFE66B48FF
:10260000406A022108400028F2D1042120680840D5
:10261000042871D100266548C06989060840002851
:102620000DD100BF6148C06908436049C8610846D0
:10263000C06909040840009000BF00BF01265C4843
:102640000068FF2101310840002816D15848006871
:10265000084357490860FFF7A1F8054606E0FFF771
:102660009DF8401B642801D90320C8E65048006843
:10267000FF21013108400028F1D000BFA0680128E7
:1026800006D14A48006A01210843484908622BE004
:10269000A06800280CD14548006A40084000434922
:1026A00008620846006A04218843404908621BE02A
:1026B000A06805280CD13D48006A042108433B4925
:1026C00008620846006A01210843384908620BE0A5
:1026D0003648006A40084000344908620846006AEB
:1026E000042188433149086200BFA068002813D044
:1026F000FFF754F8054608E029E0FFF74FF8401BC4
:102700002C49884201D9032079E62848006A022131
:1027100008400028F1D011E0FFF740F8054607E037
:10272000FFF73CF8401B2349884201D9032066E6A5
:102730001E48006A022108400028F1D1012E05D16F
:102740001A48C069310788431849C86100BF102181
:102750002068084010285FD1606901282CD11348F7
:10276000406B04210843114948630846406B01212E
:1027700008430E494863FFF711F8054606E0FFF7E6
:102780000DF8401B022801D9032038E60748406BAA
:10279000022108400028F2D00448406BF821884309
:1027A000A169C90008430149486335E000100240AF
:1027B00000700040881300006069401D00280FD1A0
:1027C0004E48406B042188434C4948630846406B9F
:1027D000F8218843A169C9000843484948631BE0C0
:1027E0004648406B04210843444948630846406B0F
:1027F000400840004863FEF7D1FF054606E0FEF7BB
:10280000CDFF401B022801D90320F8E53B48406B6F
:10281000022108400028F2D1206A00286CD03748F5
:1028200040680C210840082864D0206A022847D15B
:102830003248006801210906884330490860FEF7E4
:10284000ADFF054606E0FEF7A9FF401B022801D9AF
:102850000320D4E5294800680121490608400028E2
:10286000F1D100BF2548C06A00090001E16A0843B0
:102870002249C862616AA06A0843204949683D222A
:102880001204914308431D49486000BF0846006890
:1028900001210906084319490860FEF77FFF054634
:1028A00006E0FEF77BFF401B022801D90320A6E5C6
:1028B000124800680121490608400028F1D01BE0B9
:1028C0000E4800680121090688430C490860FEF79C
:1028D00065FF054606E0FEF761FF401B022801D9AF
:1028E00003208CE5054800680121490608400028BE
:1028F000F1D101E0012082E5002080E500100240D6
:10290000FFB581B004460D4616460027002C02D1C3
:10291000012005B0F0BD6920005D002805D100212F
:1029200068200155204600F02BFB24216920015529
:10293000206800684008400021680860204602F0D6
:1029400049F9012800D1E4E7606A002802D0204656
:1029500001F0E2FF206880680121890308432168B3
:102960008860206880680121C90388432843216862
:1029700088607705049800040743206800680749C9
:102980000840384321680860206800680121084336
:1029900021680860204602F037F8BAE7FFFF00FC24
:1029A00070B504462546681E0949884201D90120B0
:1029B0000CE0681E074948610321081F01F014FB61
:1029C00000200449886107200861002070BD0000D4
:1029D000FFFFFF0000E000E070477047024600BFC5
:1029E0003C20805C012801D10220704701233C205B
:1029F000835400BF02233D20835410684068702335
:102A0000984313685860106840680B68184313684F
:102A10005860106880688023984313689860106835
:102A200080684B6818431368986001233D208354E5
:102A300000BF00233C20835400BF0020D5E710B521
:102A40000446002C01D1012010BD3D20005D00286E
:102A500005D100213C200155204600F00DF802214F
:102A60003D200155211D206801F0C2FD01213D20BE
:102A700001550020E8E7000038B504460D492068FC
:102A8000884215D100BF0C488069C91408430A491F
:102A9000886108468069C9140840009000BF00BFE3
:102AA000002211460D20FFF78FFA0D20FFF780FA64
:102AB00038BD0000002C01400010024001460222F7
:102AC0003D20425408680068012210430A681060E3
:102AD00001223D20425400207047F8B504460D46BF
:102AE000002600BF3C20005D012801D10220F8BD76
:102AF00001213C20015500BF02213D2001552068E5
:102B000086687721304688430646FF210902304611
:102B10008843064620688660286850283ED00CDC32
:102B2000202863D004DC002856D0102868D158E053
:102B3000302860D0402863D144E0602838D0702825
:102B40000DD001210903401A02D0401A58D117E0D4
:102B500020688068C008C0002168886051E0EB6888
:102B60006A68A968206801F08BFD20688668772173
:102B7000304688430646772006432068866040E05A
:102B8000EB686A68A968206801F07AFD20688068AF
:102B90000121890308432168886032E0EA68696896
:102BA000206801F089FD5021206801F078FD28E0BF
:102BB000EA686968206801F09AFD6021206801F0E8
:102BC0006EFD1EE0EA686968206801F075FD40212D
:102BD000206801F064FD14E00021206801F05FFD31
:102BE0000FE01021206801F05AFD0AE02021206842
:102BF00001F055FD05E03021206801F050FD00E0B6
:102C000000BF00BF01213D20015500BF00213C2035
:102C1000015500BF00206AE7704710B504462068E0
:102C2000006902210840400800281CD02068C068C4
:102C300008404008002816D0481F2168086101207C
:102C40002077206880698007800F002803D0204605
:102C5000FFF7E2FF05E0204600F0C3F8204600F051
:102C6000C1F800202077206800690421084080080E
:102C700000281DD02068C06808408008002817D0B0
:102C8000C8432168086102202077206880690321F9
:102C900009020840002803D02046FFF7BDFF05E0E9
:102CA000204600F09EF8204600F09CF80020207797
:102CB0002068006908210840C00800281CD020684E
:102CC000C0680840C008002816D0C84321680861C1
:102CD000042020772068C0698007800F002803D077
:102CE0002046FFF799FF05E0204600F07AF82046DD
:102CF00000F078F800202077206800691021084053
:102D0000000900281DD02068C0680840000900287C
:102D100017D0C84321680861082020772068C0695F
:102D2000032109020840002803D02046FFF774FF62
:102D300005E0204600F055F8204600F053F800204A
:102D4000207720680069C007C00F01214840484033
:102D500000280CD02068C06808404840484000283F
:102D600005D0C81E21680861204600F03CF82068A4
:102D7000006980210840C00900280BD02068C06885
:102D80000840C009002805D0C843216808612046D2
:102D9000FFF722FE206800694021084080090028D2
:102DA0000BD02068C06808408009002805D0C843BF
:102DB00021680861204600F017F82068006920218A
:102DC0000840400900280BD02068C068084040092E
:102DD000002805D0C843216808612046FFF7FDFDA3
:102DE00010BD70477047704770477047F8B504468C
:102DF0002068C569206806682807000F00900098C1
:102E000000280BD120202840002807D02020304067
:102E1000002803D0204601F095FEF8BD20688768A1
:102E2000009800287ED0F807C00F002804D1FF20AA
:102E3000213030400028F5D0E807C00F00280BD023
:102E4000FF2001303040002806D0012021680862B0
:102E5000E06E01210843E0660220284000280AD0E5
:102E6000F807C00F002806D0022021680862E06E33
:102E700004210843E0660420284000280AD0F8070F
:102E8000C00F002806D0042021680862E06E0221ED
:102E90000843E0660820284000280ED0202030405B
:102EA000002803D1F807C00F002806D008202168A9
:102EB0000862E06E08210843E066E06E002841D019
:102EC00020202840002806D020203040002802D0B2
:102ED000204601F037FEE06E08210840002805D1A9
:102EE0002068806840210840002826D0204601F054
:102EF000FEFD2068806840210840002819D0206825
:102F00008068884321688860606E00280DD01B4867
:102F1000616E4863606EFEF7FFF9002812D0606EA4
:102F2000416B00E00FE088470CE02046FFF75DFFB3
:102F300008E02046FFF759FF04E02046FFF755FF61
:102F40000020E06669E780202840002807D0802024
:102F50003040002803D0204601F01EFF5DE74020EE
:102F60002840002807D040203040002803D02046C9
:102F700001F0CEFD51E700BF4FE70000274A0008EF
:102F800010B586B00446142101A8FDF7D7F83049E2
:102F90002068884259D100BF2E48806901218903E9
:102FA00008432C498861084680690121890308404B
:102FB000009000BF00BF00BF26484069C900084319
:102FC00024494861084640690121490408400090AD
:102FD00000BF00BF0B2040020190022002900020A1
:102FE0000390032004900120059001A90920C00648
:102FF000FEF7D6FA184819490860002048600021F9
:10300000164881608021C1600021016141618161B8
:10301000C161FEF725FA002801D0FDF7ADFD00BF24
:103020000F4800680121890208430D49086000BF6C
:1030300000BF0A486066446200BF002211461B20A0
:10304000FEF7C2FF1B20FEF7B3FF06B010BD000065
:103050000038014000100240580002405009002092
:103060000000014070B504460D4616466A20005D1A
:10307000202854D1002D01D0002E01D1012070BD97
:1030800001210903A068884208D12069002805D1E0
:10309000E807C00F002801D00120F0E700BF68203A
:1030A000005D012801D10220E9E7012168200155D6
:1030B00000BF6565582006530020E06622216A2083
:1030C00001551848616E88621748616EC8621748DA
:1030D000616E08630020616E4863236819462431DD
:1030E0003346626D606EFEF7EDF900BF0021682087
:1030F000015500BF20680068FF21013108432168A5
:103100000860206880680121084321688860206881
:10311000806840210843216888600020AFE70220D2
:10312000ADE70000954A0008E14A00083F4A000860
:1031300070477047704700BFFEE7000010B5AE2132
:103140002F4800F08DFFA3212D4802F0A7FB00BF00
:103150002C4800780128FBD100202A49087000F093
:10316000E3FF00F0F9FF00BF264800780128FBD1FB
:1031700000202449087000F0D7FF00BF21480078E4
:103180000128FBD100201F49087000F0CDFF00BFCF
:103190001C4800780128FBD100201A49087000F073
:1031A000C3FF00F0D9FF23E000BF174800690421E6
:1031B00008400028F9D1154908700EE000BF1148F9
:1031C00000780128FBD100200E49087001F076FB41
:1031D0000E480078401C0D4908700C4800780A28F9
:1031E000ECDBFDF701FC0A480078401C0849087038
:1031F000074800780A28D7D300F096FF10BD0000DA
:103200000008002042020020000400486F02002055
:103210007002002010B50B48006800680421884344
:103220000849096808600848FFF748FC0748FDF7A7
:10323000A4FC022206490548FEF70EF800200549C5
:10324000087010BDBC070020A008002070070020F7
:10325000480200204202002010B50848006880693A
:10326000072109020840002803D00448FEF733FB79
:1032700002E00248FEF76FFB10BD000000080020CE
:1032800070B505466C6A206840680121C90308438F
:10329000216848600020A16B4863E16B48634120CE
:1032A000005D602806D12021412001552046FEF70F
:1032B00010FB02E02046FEF75DFB70BD10B5034633
:1032C0000A460021D007C00F002809D04220014340
:1032D0004120C05C28242040282801D0B020014390
:1032E00002201040022809D1442001434120C05C43
:1032F00028242040282801D0B02001430420104079
:10330000042801D1B820014311201040112801D117
:103310009020014312201040122801D120200143A7
:1033200012201040122801D1402001431868006883
:1033300088431C682060002010BD01688969022252
:1033400011404908002902D00021026891620168F9
:103350008969C907C90F012251405140002904D190
:10336000016889691143026891617047F8B50446A4
:10337000002700250026002000904120005D282124
:103380000840282854D12068806901210904084098
:10339000070C206880697F2149040840050C2068DB
:1033A00080688605B60D2068C068FE210840009040
:1033B000E06802282DD106202840F1110622114094
:1033C000884216D13546A06C401CA064A06C02282F
:1033D00036D10020A06408202168C86100BF002108
:1033E0004020015500BF2A4639462046FEF772FAB2
:1033F00026E0009D04212046FFF760FF00BF00216A
:103400004020015500BF2A4639462046FEF762FAA1
:1034100016E004212046FFF751FF00BF00214020A5
:10342000015500BF2A4639462046FEF753FA07E009
:1034300008202168C86100BF00214020015500BF5D
:10344000F8BD000070B504460D460021422001552C
:103450003F48E06200206085606C28436064412042
:10346000005D282807D04120005D292803D0412095
:10347000005D2A280BD103212046FFF71FFF2821DA
:103480004120015500202063324860630DE0072190
:103490002046FFF713FF4120005D602802D0202165
:1034A00041200155002020636063206800680121ED
:1034B00089030840884215D1206800688843216844
:1034C00008602548A16B486300BF002140200155DA
:1034D00000BFA06BFDF720FF002838D0A06B416B28
:1034E000884734E0206800680121C9030840884209
:1034F00015D1206800688843216808601648E16B90
:10350000486300BF00214020015500BFE06BFDF77C
:1035100003FF00281BD0E06B416B884717E0412078
:10352000005D60280BD120214120015500BF002102
:103530004020015500BF2046FEF7CBF907E000BF51
:1035400000214020015500BF2046FEF713FA70BD50
:103550000000FFFF293900088132000870B50446D9
:103560000D461A48E06200202063202141200155C9
:1035700000214220015500206063042028400028DB
:1035800013D02068406AC1B2626A501C6062117038
:10359000208D002809D0208D401E2085608D401E82
:1035A0006085606C04210843606407212046FFF7B2
:1035B00085FE10202168C86100BF00214020015510
:1035C00000BF2046FEF742FA70BD00000000FFFF7A
:1035D00070B504460D4620202168C8610820216886
:1035E000C86107212046FFF769FE20684068012175
:1035F000C903084321684860206840684149084081
:10360000216848602046FFF798FE20680068012185
:1036100089030840884205D02068006849000840B6
:1036200088420BD14120005D212803D1A06B0068A6
:10363000406802E0E06B006840686085608D0028AB
:1036400003D0606C042108436064042028400028F3
:1036500013D02068406AC1B2626A501C6062117067
:10366000208D002809D0208D401E2085608D401EB1
:103670006085606C042108436064002020630021A1
:103680004220015500206063606C00280CD0616C02
:103690002046FFF7D7FE4120005D282831D129467A
:1036A0002046FFF75BFF2CE0E06A174988420DD007
:1036B0000846E06220214120015500BF0021402042
:1036C000015500BF2046FEF7C1F91AE04120005D18
:1036D00022280BD120214120015500BF002140208C
:1036E000015500BF2046FEF7DFFB0AE02021412004
:1036F000015500BF00214020015500BF2046FEF7C4
:10370000D4FB70BD00E800FE0000FFFF10B50446CA
:103710000021422001554120005D292811D1282196
:10372000412001552120206301212046FFF7C6FDDD
:1037300000BF00214020015500BF2046FEF7B5FB29
:1037400014E04120005D2A2810D128214120015594
:103750002220206302212046FFF7B0FD00BF002198
:103760004020015500BF2046FEF79EFB10BD000023
:1037700070B504460D461646206880691021084041
:10378000000900283AD015E0681C002812D0002D4E
:1037900004D0FEF703F8801BA8420BD9202141205A
:1037A000015500214220015500BF4020015500BFB6
:1037B000032070BD2068806920210840400900284E
:1037C000E2D010202168C86120202168C86120460D
:1037D000FFF7B3FD20684068094908402168486048
:1037E0000420606420214120015500214220015520
:1037F00000BF4020015500BF0120DAE70020D8E7D4
:1038000000E800FEFFB581B0044615461E460A9F3B
:1038100001204003F2B2002300902046029900F0FC
:1038200033F9394620460B9A00F09CF9002807D05E
:10383000606C042802D1012005B0F0BD0320FBE735
:10384000012E03D1E8B22168886216E0FF20000251
:103850002840001221688862394620460B9A00F001
:1038600081F9002806D0606C042801D10120E3E72B
:103870000320E1E7E8B2216888620B983B4600220A
:1038800040210090204600F017F9002801D00320C5
:10389000D2E70020D0E7FFB581B0044615461E46AA
:1038A0000A9F01204003F2B2C30200902046029911
:1038B00000F0EAF8394620460B9A00F053F9002848
:1038C00007D0606C042802D1012005B0F0BD0320B0
:1038D000FBE7012E03D1E8B22168886216E0FF20E1
:1038E00000022840001221688862394620460B9A5F
:1038F00000F038F9002806D0606C042801D10120BE
:10390000E3E70320E1E7E8B2216888620B983B46D1
:10391000002280210090204600F0CEF8002801D03F
:103920000320D2E70020D0E770B504460D461646C6
:1039300000BF4020005D012801D1022070BD01219F
:103940004020015500BF10202840002834D010200E
:103950003040002830D0608D002825D1E06A49062B
:10396000884202D0E06A884208D14120005D2828C0
:1039700004D129462046FFF7F1FD70E0E06A414995
:1039800088420DD04120005D292809D110202168EE
:10399000C8612046FFF7D1FC2046FFF7B7FE5EE086
:1039A00010202168C8615AE010202168C861606C4D
:1039B00004210843606452E00420284000281ED0FF
:1039C0000420304000281AD0608D00280CD02068D8
:1039D000406AC1B2626A501C60621170208D401E44
:1039E0002085608D401E6085608D002837D1E06A9B
:1039F0002449884233D02046FFF788FE2FE0082074
:103A00002840002808D008203040002804D029464B
:103A10002046FFF7ABFC22E00220284000281ED001
:103A20000220304000281AD0608D00280CD0616A36
:103A3000481C6062087821688862608D401E60853D
:103A4000208D401E20850AE0E06A01210906884297
:103A500002D0E06A002802D12046FFF757FE20205E
:103A60002840002807D020203040002803D02946D5
:103A70002046FFF7ADFD00BF00214020015500BFEB
:103A800000205BE70000FFFFF0B50C460021056851
:103A90006968084D2940A505AD0D1604FF273F04B0
:103AA0003E4035431D43059E354329430568696003
:103AB000F0BD0000009800FCF8B504460E4617461D
:103AC0001D4616E0681C002813D0002D05D0FDF718
:103AD00065FE0699401AA8420BD9202141200155C4
:103AE00000214220015500BF4020015500BF0320A6
:103AF000F8BD206880693040B04201D1012000E06B
:103B00000020B842DED00020F2E770B504460D4632
:103B100016461EE0324629462046FFF729FE0028B9
:103B200001D0012070BD002D04D0FDF737FE801BB1
:103B3000A8420ED9606C20210843606441200155E1
:103B400000214220015500BF4020015500BF032045
:103B5000E8E7206880692021084040090028D9D082
:103B60000020DFE770B504460D46164621E03246D8
:103B700029462046FFF7FCFD002801D0012070BD3A
:103B8000681C002815D0002D04D0FDF707FE801B0F
:103B9000A8420ED9606C2021084360644120015581
:103BA00000214220015500BF4020015500BF0320E5
:103BB000E5E7206880690221084040080028D6D047
:103BC0000020DCE70146002901D0002070470120D9
:103BD000FCE70000002802DCFF2800DD012001498D
:103BE00008707047140200200EB50020009001906C
:103BF00002901D481D4908604005486000211B488F
:103C00008160C16001210161082141610021816160
:103C1000C16101624162816201218902C1620121A7
:103C200001634163FDF7D4F9002801D0FCF7A4FF3C
:103C300001200090000301900220029004200090D7
:103C400069460A48FDF70CF8002801D0FCF794FFFC
:103C50000520009069460548FDF702F8002801D0CC
:103C6000FCF78AFF0EBD0000002401407007002011
:103C700008B500BF12484069012108431049486156
:103C800008464069C007C00F009000BF00BF002277
:103C900011460920FEF798F90920FEF789F900225C
:103CA00011460A20FEF790F90A20FEF781F900225A
:103CB00011460B20FEF788F90B20FEF779F908BDB5
:103CC0000010024000B587B0142102A8FCF736FAB4
:103CD00000BF5F4840690121C90408435C4948614D
:103CE000084640690121C9040840019000BF00BF97
:103CF00000BF57484069C900084355494861084614
:103D00004069012189050840019000BF00BF00BF44
:103D10004F484069491108434D4948610846406988
:103D2000012149040840019000BF00BF00BF48487E
:103D300040694900084346494861084640690121F5
:103D400089040840019000BF00BF002207214903F9
:103D50004048FDF71DFD00223F494048FDF718FD92
:103D60000022FF2101310920C006FDF711FD0022CC
:103D7000C0213B48FDF70CFD0720400302900120C5
:103D8000039000200490059002A93248FDF708FC3A
:103D900001200290334803900020049002A90920DA
:103DA000C006FDF7FDFB3048029000200390012083
:103DB000049002A90920C006FDF7F2FB4020029002
:103DC0002A4803900020049002A90920C006FDF7AC
:103DD000E7FB214802900120039000200490059009
:103DE00002A91E48FDF7DCFB04200290002003908E
:103DF0000120049002A91948FDF7D2FBFF200130F1
:103E000002900120039000200490059002A909204F
:103E1000C006FDF7C5FBC0200290012003900020E2
:103E20000490059002A90E48FDF7BAFB0022114646
:103E30000520FEF7C9F80520FEF7BAF80022114662
:103E40000720FEF7C1F80720FEF7B2F807B000BD63
:103E50000010024000080048FAF300000004004887
:103E600000140048000011102088000000002110FC
:103E700010B51348134908601348486000211148E1
:103E800081600121C1600021016141618161C161E5
:103E90000162FDF771FD002801D0FCF76DFE0021E5
:103EA0000848FDF7A6FC002801D0FCF765FE0021BC
:103EB0000448FDF7D5FC002801D0FCF75DFE10BDDD
:103EC00000540040000800200B02000010B5094813
:103ED000094908600620486008490748C1607D21FB
:103EE00009018160FDF7E2FF002801D0FCF744FEE4
:103EF00010BD00000030004090080020FF0F0000BF
:103F000000B587B0002003900490059006900190C2
:103F100002901648164908600020486000211448A5
:103F200081601449C1600021016141618161FEF736
:103F300086FD002801D0FCF71FFE0120000303903E
:103F400003A90B48FEF7C9FD002801D0FCF714FEB9
:103F5000202001900020029001A90548FEF73EFDB7
:103F6000002801D0FCF708FE07B000BD002C01407E
:103F7000A00800208713000010B5154815490860F7
:103F80001548806948601448C06980001349095881
:103F9000104881600021C1600F48C069800010494D
:103FA00009580C4801610C21416100218161C16106
:103FB00001620020074948620A231A460021054889
:103FC000FEF79EFC002801D0FCF7D6FD10BD0000D6
:103FD00000380140E00800201C060020705E000848
:103FE000645E00087047000010B5002819DA1A4A0C
:103FF00003071B0F083B9B089B00D2588307DC0E6E
:10400000FF23A3409A438B071B0E8407E40EA340B3
:104010001A43114B0407240F083CA408A4001A51AA
:1040200018E00E4A03231B02D21883089B00D258C3
:104030008307DC0EFF23A3409A438B071B0E8407E4
:10404000E40EA3401A43054B032424021B198408E1
:10405000A4001A5110BD00001CED00E000E100E0DA
:10406000024A1060024A1170704700002C010020C3
:1040700030010020FEB505460E4614461148007872
:1040800001210843074615E00020C0430421012315
:104090002A4600960191029039460B480068FDF7C8
:1040A000D7FC0A4908700420FDF759FA241F281D7F
:1040B00085B2361D002CE7DC01DC0020FEBD0020AF
:1040C000C043FBE7300100202C010020310100201B
:1040D000FEB505460E46144616E00020C0430421F6
:1040E00001232A460096019102900B4801780B4863
:1040F0000068FDF78FFD0A4908700420FDF72FFACC
:10410000241F281D85B2361D002CE6DC01DC0020B2
:10411000FEBD0020C043FBE7300100202C01002041
:10412000310100207047000010B5002401E0601C40
:10413000C4B2022CFBDB50220549C820FFF79AFFCE
:1041400028220449FF209130FFF794FF10BD0000A2
:104150004C03002034000020F0B585B0002004900E
:10416000002425E0A2002F498858FCF751F901915D
:10417000009001F051FC0546FCF76CF90290FCF749
:1041800040F9A2000390284881580398FCF73AF8B8
:104190000746FCF74BF9A100244A5050A0001146F5
:1041A0000858C82802D20020A1005050601CC4B298
:1041B000022CD7DB1E480078012813D11B48016868
:1041C0001C4802780078401C1A4B187090001A4A5C
:1041D000115014480838806804900021049800F0B9
:1041E000B9F816E015480078012812D10F48416847
:1041F000104802780078401C0E4B187090000E4A50
:10420000115008480838C06804900121049800F053
:10421000A1F8084800780A2802D300200549087050
:1042200005B0F0BDF4020020E4020020BC02002032
:10423000060000206200002080020020070000200D
:1042400070470000022806DD0121064A1170002196
:10425000054A117005E00021024A11700121024A4D
:10426000117070470600002007000020F0B589B0EB
:1042700005460C4628216943334A8918A20088580C
:10428000FCF7C6F80191009001F0C6FB0391029083
:10429000FCF7E0F80646282169432B4A8A18611C7E
:1042A00089005058FCF7B4F80191009001F0B4FB7C
:1042B00003910290FCF7CEF807463046FCF7A1F8D0
:1042C000A100224A03905058FCF79BF802900399F2
:1042D000FBF7D5FF07903846FCF793F8611C89007F
:1042E0001A4A03905058FCF78CF802900399FBF798
:1042F000C6FF0690B81BFCF784F803900799069850
:10430000FBF778FF02900399FBF7B9FF0590304661
:10431000FCF777F802900599FBF774FF0390079973
:10432000FBF76CFF04903046FCF76BF802900599A0
:10433000FBF768FF03900499FBF70BFFAA00044901
:10434000885009B0F0BD00004C030020340000206C
:10435000E4020020F0B589B005460C46002660E076
:104360002820604331494018B1004058A8420ED877
:10437000282060432D494118701C80000858A8422D
:1043800005D931462046FFF771FF09B0F0BD012C79
:1043900021D12648806AA8421DD92449886AFCF7A1
:1043A00037F80191009001F037FB05910490204906
:1043B0000868FCF726F80746FCF76AF803910290B4
:1043C000059B049AFBF79AFF07910690FCF774F897
:1043D0001849C861D9E7002C21D11448406AA84285
:1043E0001DD21249486AFCF713F80191009001F0C0
:1043F00013FB059104900E49486AFCF702F8074642
:10440000FCF746F803910290059B049AFBF776FFB0
:1044100007910690FCF750F806498861B5E7701CD3
:10442000C6B20A2E9CD300BFAFE700004C030020A9
:1044300034000020CC020020F8B5002440E0002029
:10444000A100214A5050A00020490858A100505016
:104450000020A1001D4A5050A1001B4A5058FBF7F4
:10446000C5FF07461A49FBF7CDFE0646FBF7DEFF00
:1044700081B26200174881520021A2001248083020
:104480008150002518E0E900104808300818A10004
:1044900040588108A2000C48083080580918A20032
:1044A0000948083081500021EA00084808301018F7
:1044B000A2008150681CC5B2022DE4DB601CC4B2AE
:1044C000022CBCD3F8BD0000EC020020CC0200207E
:1044D0000AD7A33AC402002010B5FDF71DFD10BD98
:1044E00000B595B0302109A8FBF728FE0020059003
:1044F00006900790089001900290039004900B2082
:10450000099001200A900C9010200D90012010902D
:1045100002201190C10312910321890413910021FB
:10452000149109A8FDF746FF002801D0FCF724FBF1
:104530000720059002200690002007900890012196
:1045400005A8FDF7F3FD002801D0FCF715FB21209D
:10455000019000200390049001A8FDF73FFD002882
:1045600001D0FCF709FB15B000BD00001948006838
:104570000121084317490860084640681649084069
:104580001449486008460068144908401149086009
:10459000084600680121890488430E4908600846DE
:1045A00040683F21090488430A4948600846C06AB8
:1045B00000090001C8620846006BFF2114318843DE
:1045C000044908630846406B4008400048630020E7
:1045D00088607047001002400CB8FF08FFFFF6FE2D
:1045E00010B50248FEF719FB10BD0000A00800201E
:1045F00010B5002202681D4B984202D01C4B984215
:1046000005D170241346A3431A464B681A43174B2F
:1046100098420BD0164B984208D0164B984205D0C2
:10462000154B984202D0154B984206D10324240220
:104630001346A3431A46CB681A4380241346A34368
:104640004C6923431A4602608B68C3620B6883621D
:10465000064B984205D0084B984202D0074B98422F
:1046600001D10B6903630123436110BD002C01409C
:104670000004004000200040004401400048014088
:1046800070B50C4600218168FF2636020D46B54301
:1046900029461D02154325432943816070BD10B58D
:1046A0000A460021816870240B46A343194607235C
:1046B00013431943816010BD70B50B4614460021A9
:1046C0000022026A056A6D086D0005628169F026A4
:1046D0000D46B5432946250129430A261546B5430B
:1046E0002A4615461D432A468161026270BD70B597
:1046F0000B46144600210022056A1026B5430562C8
:104700008169026A0F2636030D46B5432946250303
:104710002943A0261546B5432A461D012A43816137
:10472000026270BD10B554480078002842D053484A
:10473000007800283ED152480078002837D15148EF
:104740000078002815D0042408E0601E80004E493F
:104750000858A1004C4A5050601EC4B2002CF4DC32
:104760004A48006848490860484800684849086065
:1047700018E048480078002814D0042408E0601E9F
:10478000800041490858A1003F4A5050601EC4B201
:10479000002CF4DC3D4840683B4908603B484068D9
:1047A0003B490860142238491046FFF791FC01206C
:1047B0003349087033480078012825D1364800690C
:1047C00000280CD03148006834490968884203D376
:1047D00001203349087002E00020314908702B485D
:1047E000006830490968884205D901202E490870BF
:1047F0002E49087031E02148007800282DD11E494B
:1048000008702A49087028E022480078012824D13D
:104810002148006900280CD01C4840681F490968DD
:10482000884203D301201E49087002E000201C4981
:104830000870164840681B490968884205D901205C
:10484000194908701949087007E00C4800780028D9
:1048500003D10949087015490870154800681549C1
:104860000988884203D901201349087002E000201A
:104870001149087010BD00000A0000201800002037
:104880005F00002006000020A8020020BC020020DB
:1048900030000020070000201C060020140000202B
:1048A00009000020000000200C0000205002002021
:1048B000540200202E000020040000207CB50024BB
:1048C00015E0A20011498858FBF7A2FD054601F04A
:1048D000A3F801910090FBF7BDFD282161430C4A2C
:1048E00089180C4A127892008850601CC4B2022CBD
:1048F000E7DB08480078401C064908700846007845
:104900000A2801D1002008707CBD0000F4020020BC
:10491000FC02002060000020818CC907C90F00291B
:1049200008D001684968012252049143826A114308
:10493000026851600222416A1140002907D00168D3
:104940004968D2039143C26A11430268516004224C
:10495000416A1140002907D0016849681204914357
:10496000026B1143026851600822416A114000291C
:1049700007D00168496812039143426B11430268F2
:1049800051601022416A1140002907D001688968EE
:1049900012029143826B1143026891602022416AA6
:1049A0001140002907D00168896812029143C26B47
:1049B0001143026891604022416A1140002915D0DC
:1049C0000168496892039143026C11430268516087
:1049D00001221205016C914208D101684968032245
:1049E00052059143426C1143026851608022416A32
:1049F0001140002907D00168496812039143826C75
:104A0000114302685160704701460020C8662022A9
:104A1000692042546A20425400BF00226820425458
:104A200000BF0020704770B505466C6A00215A200F
:104A30000153522001532046FEF7D7F970BD70B5DF
:104A400005466C6A6920005D21280BD120688068CA
:104A500080210840002805D0002152200153204623
:104A600000F066F86A20005D22280BD1206880687B
:104A700040210840002805D000215A20015320463B
:104A800000F035F8E06E10210843E0662046FEF79E
:104A9000ACF970BD70B505466C6A286800682021C5
:104AA0000840002818D100215A20015320680068CE
:104AB000FF21013188432168086020688068400830
:104AC0004000216888602068806840218843216810
:104AD000886020216A2001552046FEF729FB70BD21
:104AE00070B50446656A2846FEF723FB70BD016871
:104AF0000968FF22213291430268116001688968C8
:104B0000490849000268916020226A210A547047CE
:104B100010B5044620680068402188432168086079
:104B20002021692001552046FEF704FB002010BD1E
:104B300001680968C022914302681160202269213E
:104B40000A547047F8B504465C20075B6A20005D94
:104B5000222836D12068858C01210903A06888426B
:104B60000AD12069002807D1666D28463840308078
:104B7000606D801C606505E0F8B22840626D511CD4
:104B8000616510705A20005B401E81B25A200153AB
:104B9000002914D120680068FF2121318843216851
:104BA00008602068806840084000216888602021F3
:104BB0006A2001552046FEF7BBFA0020F8BD002010
:104BC000FCE7206880690821084321688861022089
:104BD000F4E70000FEB5044600251026002700205B
:104BE000029001902169A068084361690843E16966
:104BF0000843054620680068624908402843216848
:104C0000086020684068032109038843E16808437D
:104C100021684860216AA0690843054620688068C9
:104C20000B210902884328432168886000BF564849
:104C3000006B8007800F002806D0012808D00228CA
:104C400008D0032808D101E0002607E0022605E08D
:104C5000042603E0082601E0102600BF00BF00BFC5
:104C60000121C903E069884249D1042E20D004DC27
:104C7000002E07D0022E32D111E0082E25D0102EA2
:104C80002DD12DE0FDF722FB400061684908401856
:104C900000906168FBF724FA80B2029023E061681B
:104CA0004A083A4BD018FBF71BFA80B202901AE080
:104CB000FDF71EFB400061684908401800906168DC
:104CC000FBF70EFA80B202900DE061684A080123FA
:104CD0001B04D018FBF704FA80B2029003E000BF77
:104CE0000120019000BF00BF2949029808400746F3
:104CF00002980007400F07432068C76040E0042E79
:104D000021D004DC002E07D0022E34D111E0082E71
:104D100026D0102E2FD12FE0FDF7D8FA6168490870
:104D2000401800906168FBF7DBF980B22168C86029
:104D300025E061684A08174BD018FBF7D1F980B21B
:104D40002168C8601BE0FDF7D3FA61684908401884
:104D500000906168FBF7C4F980B22168C8600EE07A
:104D600061684A080123DB03D018FBF7B9F980B268
:104D70002168C86003E000BF0120019000BF00BFB0
:104D80000198FEBDF369FFFF001002400024F4000B
:104D9000F0FF000000127A0001466920405C2128E3
:104DA00031D15220405A00280DD108680068802374
:104DB00098430B68186008680068402318430B6824
:104DC00018600020704701231B03886898420CD1AB
:104DD0000869002809D1CA6C1088C005C00D0B688D
:104DE0001885C86C801CC86405E0CB6C581CC8646E
:104DF00018780B6818855220405A401E83B2522002
:104E000043520020DEE70220DCE7000010B5024834
:104E1000FDF7ECFF10BD0000E00800202021020C8F
:104E200001D010211046020A01D0104608390209AB
:104E300001D01046091F820801D01046891E420881
:104E400001D0881E7047081A704730B47446641E3B
:104E50002578641CAB4204D3635D5B00E31830BC6F
:104E600018471D46F8E702E008C8121F08C1002ACB
:104E7000FAD170477047002001E001C1121F002ADB
:104E8000FBD1704701490860704700007C02002098
:104E9000F8B505460C46002605E00A212846FBF732
:104EA0001FF90546761C1E488542F6D82F4605E0B8
:104EB0000A213846FBF714F90746761C002FF7D174
:104EC000184885420AD9411C2846FBF709F9E070C9
:104ED000E0787D21C90048432D1A01E00020E070F0
:104EE000632D09D964212846FBF7FAF8A070A07851
:104EF000642148432D1A01E00020A070092D09D932
:104F00000A212846FBF7ECF8607060780A214843D4
:104F10002D1A01E00020607025703046F8BD0000B9
:104F20000F270000E703000002469000084B1858C6
:104F300001400848835C0846D8400146002A01D158
:104F4000C90103E0042A00D100E0090208467047C5
:104F5000A45D0008B85D000810B501201449086080
:104F60007D20C0004860134888605020C860012040
:104F7000086148614B20C00188610020C861086257
:104F800003200D4908600B480C49086000200C49BB
:104F9000087001226420FFF79BF804220649602074
:104FA000FFF796F8042205495620FFF791F810BD47
:104FB0001C060020B80B0000C0000020C400002028
:104FC00034010020F8B506460F465348006853499F
:104FD000084051490860FBF797FD51490870514856
:104FE0000078002806D04C4800680121C904084315
:104FF000494908604C480078002807D14B480078A0
:10500000002803D14A480078002806D042480068AA
:105010000121890408434049086046480078002877
:105020000AD045480078002806D13B480068012195
:1050300009050843384908604048007800283BD1FA
:1050400001203F490870364800785A2806DB32486C
:1050500000683C490843304908602DE0304800783A
:10506000462807DB2C4800683649083908432A4996
:10507000086021E02A480078322807DB26480068CB
:105080003049483908432449086015E0244800782D
:105090001E2806DB204800682B4908431E4908608B
:1050A0000AE01F4800780A2806DB1B480068012137
:1050B000C905084318490860002429E0164800681B
:1050C000384301462046FFF72FFF054600206100C8
:1050D0001E4A5052042C14DA305D002805D0042CEE
:1050E00003DA305D6100505203E000206100174A8E
:1050F000505260001549085A28436100134A505223
:1051000004E012480089284310490881601CC4B299
:10511000052CD3DBF8BD000084000020B76D62FFD2
:10512000820000200B0000205F02002018000020F9
:105130000A0000200C00002004000020A300002032
:1051400049010020481280000010800094000020D7
:1051500007480078002809D106480078002805D1C2
:1051600005480078002801D1012070470020FCE7A5
:10517000190000205F020020180000205948007824
:10518000022802D100205749087056480078800054
:10519000554908580069534909788900534A5158BC
:1051A000084053494F4A1278895CC84000281ED1F4
:1051B0004C48007840004F49085A32280BDD002047
:1051C0004849097849004B4A505201214A48454A0A
:1051D000127881542EE04348007840004549085A2F
:1051E000401C404909784900424A505222E00020C0
:1051F0003C49097849003F4A50523A4800784000FB
:105200003E49085A0A280ADD002036490978490033
:105210003A4A50523849334A127888540AE03148A1
:10522000007840003549085A401C2E490978490049
:10523000324A505232482B490978405C40002E498E
:10524000284A1278895C08438007800F2C49254A38
:1052500012788854084623490978405C03281ED1F7
:105260002048007840002749085AC8280BDD002054
:105270001C4909784900234A505201212248194A01
:105280001278815428E01748007840001D49085AD8
:10529000401C1449097849001A4A50521CE0002069
:1052A000104909784900174A505215480D490978A4
:1052B000405C012805D1012114480A4A1278815422
:1052C0000AE00F4807490978405C022804D101210F
:1052D0000F48044A1278815402480078401C014962
:1052E00008707047780000200C5D0008145D00080D
:1052F0006400002066000020790000206C0000207F
:105300007B00002072000020760000206A00002050
:105310007000002030B501464B000E4CE25A0020D0
:1053200015E0012383401340002B07D043000A4CB3
:10533000E35A8400094D2C59A36206E04300064C51
:10534000E35A8400054D2C59A361431CD8B20B28A5
:10535000E7D330BD94000020485D00081C5D0008C4
:10536000F3B581B066480068664908406449086042
:1053700069460198FFF78CFDC5B2FBF7C5FB624992
:1053800008706248007885420BDC6148007800288C
:1053900007D05B48006801210904084358490860A8
:1053A0000AE05C480078854206DD55480068012126
:1053B000C9030843524908605748007800280AD0BA
:1053C00056480078002806D14D480068012109059B
:1053D00008434B49086052480078002806D04848E6
:1053E00000680121C9040843454908604D48007818
:1053F000002807D14C480078002803D14B4800789A
:10540000002806D03E4800680121890408433C4931
:1054100008604748007800283BD101203C490870CB
:10542000394800785A2806DB354800684149084366
:10543000334908602DE034480078462807DB3048BF
:1054400000683C49083908432D49086021E02E488E
:105450000078322807DB2A48006836494839084373
:105460002749086015E0284800781E2806DB2448F4
:10547000006831490843224908600AE02248007860
:105480000A2806DB1E4800680121C90508431C499B
:1054900008602E46042D00DA042500242DE0184A69
:1054A00002981268104301462046FFF73DFD07466B
:1054B000002C06D021480068805DA04201D18020E8
:1054C0000743002061001E4A5052AC420EDA042C01
:1054D0000CDA6846005D1B49085C610050526000B0
:1054E0001146085A38436100505204E014480089BC
:1054F000384313490881601CC4B2052CCFDBFEBDC4
:1055000084000020B76D62FF820000208000002030
:1055100049010020810000200C0000200400002030
:105520000B0000205F020020180000200A0000206D
:10553000A300002048128000001080008800002096
:1055400094000020BD5D000870B504460D46054876
:10555000201A84B2A100044A88182946FFF732FDB8
:1055600070BD0000DC050000C75D00080D2141434F
:10557000074A8918074A11600749095C091D074A4B
:1055800011700549095C891C054A117070470000BB
:105590005E5D0008880000209F5D000881000020FB
:1055A0008000002010B500202449087024480078AD
:1055B00000280AD023480078002806D1022022497A
:1055C000087001201D49087023E020480078002859
:1055D00009D01C480078002805D101201A4908701C
:1055E0001649087015E01A48007800280AD01548B6
:1055F0000078002806D104201349087001200F49C3
:10560000087006E013480078002802D000200E49F8
:10561000087010480078002803D108480078002856
:105620000BD00D480078FEF7CDFA0B4908700846FC
:1056300001780548007800F0D7F810BDA6000020DA
:1056400019000020A3000020AD0000205F02002010
:1056500018000020A0000020AE000020FCF764FC31
:10566000FEF73EFFFEF72EFBFEF702FBFEF7BCFA4D
:10567000FEF7FEFBFEF780FCFEF742FCFEF726FC81
:105680003B480021016041608160C16020213948B0
:10569000FAF754FD38480021016041608160C16023
:1056A000FDF7B8FDFDF74AFD00F0DAF900F06CF9FE
:1056B00000F07CF8FEF760FC3049087DFEF78AFABE
:1056C0002F49304800F034F9FEF700FC4EE02E4838
:1056D0000078012830D1FEF73FFD00202A490870EC
:1056E000FFF720F829480078401C2849087028480E
:1056F0000078401C2649087026480078401C25493F
:10570000087008460078052804DB00F0D3F9002073
:10571000204908701D4800780A2804DB00F0C8F80A
:1057200000201A4908701A4800781D2804DBFFF78A
:1057300039FF0020164908701748007801280CD15D
:1057400016480078012808D1154908700B480069EF
:10575000022802D10120134908701348007800285C
:1057600004D0FFF70BFD00200F490870AFE70000E1
:10577000BC020020CC020020EC0200201C0600200D
:1057800050090020E0080020420200206A020020A8
:10579000680200206902002004000020500200205E
:1057A0005F0200200B0000204502002010B50124FC
:1057B00001220A49B820FEF75DFC084800788442BF
:1057C00005D10120064908700649087004E0002050
:1057D000034908700349087010BD0000240100202F
:1057E000A0000020A200002070B504460D46A000D5
:1057F000124940186900405A114988420CDDE20004
:10580000104BD218AB00D158A2000C4BD2186B0031
:10581000D05AFFF799FE0FE0A100084A89186A00E4
:10582000885C00F011F80646E000064A8018AA00DD
:1058300081583046FFF794FD70BD0000C80000207D
:10584000DB050000DC00002010B504462300FFF754
:10585000FCFA0805080B0E1114171A1D0C490868EC
:1058600014E00B49486811E0094988680EE00849CE
:10587000C8680BE00649086908E00649086805E0C1
:10588000FBF792F802E00449086800BF00BF10BDB2
:10589000A80200200000002030000020024A106012
:1058A000024A117070470000040200200802002024
:1058B0001B48007800282ED01A48007800281CD0F9
:1058C000194800880F21C901084017490880084677
:1058D00040880F21C9010840134948800846808844
:1058E0000F21C9010840104988800846C0880F214F
:1058F000C90108400C49C88010E00C48006840000D
:105900000949085A0F21C901084008490968490096
:10591000054A505202E0002001490870704700001B
:105920008C0000205E0200209400002090000020E7
:1059300070B504460D460F4804600F4805600F48D7
:105940000F49086032200F49086000220121090335
:105950000920C006FBF71CFF06480068FBF724FF80
:105960000848008882B20648016802480068FDF7CE
:1059700079FB70BD30020020340200203C0700207B
:10598000380200203C02002010B501221A49642090
:10599000FEF770FB194800781749097888420FD143
:1059A000242217497020FEF765FB04221549562072
:1059B000FEF760FB042214496020FEF75BFB01E068
:1059C000FFF7CAFA0E484068642148430F4908604F
:1059D0000B49C9680D4A1268514308466421FAF719
:1059E0007FFB0B490860064800890A214843643858
:1059F0000849088010BD0000350100203401002056
:105A00001C060020C4000020C00000200000002070
:105A1000140000202E000020F8B506460C46FAF7C8
:105A200007FE051E0F4600D00120014349000B4828
:105A30004908411AC90F0DD0002E01D0012100E004
:105A400000210C4361004908401AC00F02D1012017
:105A5000FFF718FA28463946F8BD00000000F07F2D
:105A600010B50220FFF782FD10BD000001460020A6
:105A7000064A525C002A01D0012200E000221046B2
:105A80000022024B5A54024B5A54704776000020B1
:105A90006A0000200146064A525C002A01D0012219
:105AA00000E0002210460022014B5A5470470000CB
:105AB0006A00002010B57048007800280CD16F48AB
:105AC0000078012808D16E480078002804D16D487C
:105AD00001780020FFF788FEFFF73AFB002830D05E
